:020000040800F2
:1000000000500020A1130008D5100008D7100008E8
:10001000D9100008DB100008DD1000080000000007
:10002000000000000000000000000000DF100008D9
:10003000E110000800000000E3100008E5100008CF
:10004000E9130008E9130008E9130008E9130008A0
:10005000E9130008E9130008E9130008E913000890
:10006000E9130008E9130008E9130008E913000880
:10007000E9130008E9130008ED100008FD1000085E
:10008000E9130008E9130008E9130008E913000860
:10009000E9130008E9130008E9130008E913000850
:1000A000E9130008E9130008E9130008E913000840
:1000B000E91300080D110008E9130008E91300080E
:1000C000E9130008E9130008E9130008E913000820
:1000D000E9130008E9130008E9130008E913000810
:1000E000E9130008E9130008E91300080000000004
:1000F0000000000000000000000000000000000000
:0C01000000000000000000005FF808F1A3
:1001100010B5054C237833B9044B13B10448AFF341
:1001200000800123237010BDC006002000000000E5
:100130003880000808B5034B1BB103490348AFF3EF
:10014000008008BD00000000C406002038800008C0
:1001500081F0004102E000BF83F0004330B54FEA78
:1001600041044FEA430594EA050F08BF90EA020FE5
:100170001FBF54EA000C55EA020C7FEA645C7FEA78
:10018000655C00F0E2804FEA5454D4EB5555B8BF9B
:100190006D420CDD2C4480EA020281EA030382EA0C
:1001A000000083EA010180EA020281EA0303362D9E
:1001B00088BF30BD11F0004F4FEA01314FF4801C71
:1001C0004CEA113102D0404261EB410113F0004F83
:1001D0004FEA03334CEA133302D0524263EB43033A
:1001E00094EA050F00F0A780A4F10104D5F1200ED8
:1001F0000DDB02FA0EFC22FA05F2801841F1000133
:1002000003FA0EF2801843FA05F359410EE0A5F106
:1002100020050EF1200E012A03FA0EFC28BF4CF037
:10022000020C43FA05F3C01851EBE37101F00045ED
:1002300007D54FF0000EDCF1000C7EEB00006EEBFA
:100240000101B1F5801F1BD3B1F5001F0CD3490884
:100250005FEA30004FEA3C0C04F101044FEA4452DB
:1002600012F5800F80F09A80BCF1004F08BF5FEA62
:10027000500C50F1000041EB045141EA050130BD42
:100280005FEA4C0C404141EB0101013C28BFB1F554
:10029000801FE9D291F0000F04BF01460020B1FA9F
:1002A00081F308BF2033A3F10B03B3F120020CDA72
:1002B0000C3208DD02F1140CC2F10C0201FA0CF050
:1002C00021FA02F10CE002F11402D8BFC2F1200CB5
:1002D00001FA02F120FA0CFCDCBF41EA0C0190406B
:1002E000E41AA2BF01EB0451294330BD6FEA0404B4
:1002F0001F3C1CDA0C340EDC04F11404C4F120029F
:1003000020FA04F001FA02F340EA030021FA04F3B0
:1003100045EA030130BDC4F10C04C4F1200220FA07
:1003200002F001FA04F340EA0300294630BD21FA45
:1003300004F0294630BD94F0000F83F4801306BF0B
:1003400081F480110134013D4EE77FEA645C18BFFF
:100350007FEA655C29D094EA050F08BF90EA020F96
:1003600005D054EA000C04BF1946104630BD91EA8E
:10037000030F1EBF0021002030BD5FEA545C05D191
:100380004000494128BF41F0004130BD14F58004D0
:100390003CBF01F5801130BD01F0004545F0FE4144
:1003A00041F470014FF0000030BD7FEA645C1ABF79
:1003B000194610467FEA655C1CBF0B46024650EAB0
:1003C000013406BF52EA033591EA030F41F40021DC
:1003D00030BD00BF90F0000F04BF0021704730B562
:1003E0004FF4806404F132044FF000054FF0000137
:1003F00050E700BF90F0000F04BF0021704730B5F8
:100400004FF4806404F1320410F0004548BF4042CC
:100410004FF000013EE700BF42004FEAE2014FEA21
:1004200031014FEA02701FBF12F07F4393F07F4FFC
:1004300081F06051704732F07F4208BF704793F0FF
:100440007F4F04BF41F40021704730B54FF4607412
:1004500001F0004521F000411CE700BF50EA010215
:1004600008BF704730B54FF000050AE050EA0102BE
:1004700008BF704730B511F0004502D5404261EB2E
:1004800041014FF4806404F132045FEA915C3FF46F
:10049000D8AE4FF003025FEADC0C18BF03325FEA0C
:1004A000DC0C18BF033202EBDC02C2F1200300FABD
:1004B00003FC20FA02F001FA03FE40EA0E0021FAE2
:1004C00002F11444BDE600BF70B54FF0FF0C4CF4D0
:1004D000E06C1CEA11541DBF1CEA135594EA0C0F82
:1004E00095EA0C0F00F0DEF82C4481EA030621EABD
:1004F0004C5123EA4C5350EA013518BF52EA0335F8
:1005000041F4801143F4801338D0A0FB02CE4FF0A9
:100510000005E1FB02E506F00042E0FB03E54FF0D9
:100520000006E1FB03569CF0000F18BF4EF0010ED1
:10053000A4F1FF04B6F5007F64F5407404D25FEACD
:100540004E0E6D4146EB060642EAC62141EA555180
:100550004FEAC52040EA5E504FEACE2EB4F1FD0CC2
:1005600088BFBCF5E06F1ED8BEF1004F08BF5FEA40
:10057000500E50F1000041EB045170BD06F00046F2
:1005800046EA010140EA020081EA0301B4EB5C049F
:10059000C2BFD4EB0C0541EA045170BD41F4801197
:1005A0004FF0000E013C00F3AB8014F1360FDEBFBC
:1005B000002001F0004170BDC4F10004203C35DA98
:1005C0000C341BDC04F11404C4F1200500FA05F31B
:1005D00020FA04F001FA05F240EA020001F00042BC
:1005E00021F0004110EBD37021FA04F642EB060132
:1005F0005EEA430E08BF20EAD37070BDC4F10C045C
:10060000C4F1200500FA04F320FA05F001FA04F21F
:1006100040EA020001F0004110EBD37041F100010B
:100620005EEA430E08BF20EAD37070BDC4F1200516
:1006300000FA05F24EEA020E20FA04F301FA05F27E
:1006400043EA020321FA04F001F0004121FA04F226
:1006500020EA020000EBD3705EEA430E08BF20EAF6
:10066000D37070BD94F0000F0FD101F00046400030
:1006700041EB010111F4801F08BF013CF7D041EAB2
:10068000060195F0000F18BF704703F000465200B6
:1006900043EB030313F4801F08BF013DF7D043EA87
:1006A0000603704794EA0C0F0CEA135518BF95EA3D
:1006B0000C0F0CD050EA410618BF52EA4306D1D1C4
:1006C00081EA030101F000414FF0000070BD50EAE3
:1006D000410606BF1046194652EA430619D094EA6D
:1006E0000C0F02D150EA013613D195EA0C0F05D157
:1006F00052EA03361CBF104619460AD181EA0301AB
:1007000001F0004141F0FE4141F470014FF0000062
:1007100070BD41F0FE4141F4780170BD70B54FF0FD
:10072000FF0C4CF4E06C1CEA11541DBF1CEA13557D
:1007300094EA0C0F95EA0C0F00F0A7F8A4EB05045F
:1007400081EA030E52EA03354FEA013100F0888056
:100750004FEA03334FF0805545EA131343EA12631F
:100760004FEA022245EA111545EA10654FEA0026D4
:100770000EF000419D4208BF964244F1FD0404F58D
:10078000407402D25B084FEA3202B61A65EB0305E9
:100790005B084FEA32024FF480104FF4002CB6EBA6
:1007A000020E75EB030E22BFB61A754640EA0C0026
:1007B0005B084FEA3202B6EB020E75EB030E22BF66
:1007C000B61A754640EA5C005B084FEA3202B6EBA7
:1007D000020E75EB030E22BFB61A754640EA9C0066
:1007E0005B084FEA3202B6EB020E75EB030E22BF36
:1007F000B61A754640EADC0055EA060E18D04FEAF4
:10080000051545EA16754FEA06164FEAC30343EA93
:1008100052734FEAC2025FEA1C1CC0D111F4801F60
:100820000BD141EA00014FF000004FF0004CB6E759
:1008300011F4801F04BF01430020B4F1FD0C88BFF8
:10084000BCF5E06F3FF6AFAEB5EB030C04BFB6EB03
:10085000020C5FEA500C50F1000041EB045170BDF6
:100860000EF0004E4EEA113114EB5C04C2BFD4EB23
:100870000C0541EA045170BD41F480114FF0000EA7
:10088000013C90E645EA060E8DE60CEA135594EA23
:100890000C0F08BF95EA0C0F3FF43BAF94EA0C0F26
:1008A0000AD150EA01347FF434AF95EA0C0F7FF49B
:1008B00025AF104619462CE795EA0C0F06D152EAEF
:1008C00003353FF4FDAE1046194622E750EA4106D3
:1008D00018BF52EA43067FF4C5AE50EA41047FF4E4
:1008E0000DAF52EA43057FF4EBAE12E74FF0FF3C49
:1008F00006E000BF4FF0010C02E000BF4FF0010C1A
:100900004DF804CD4FEA410C7FEA6C5C4FEA430C92
:1009100018BF7FEA6C5C1BD001B050EA410C0CBFE1
:1009200052EA430C91EA030F02BF90EA020F002043
:10093000704710F1000F91EA030F58BF994208BFAA
:1009400090422CBFD8176FEAE37040F00100704767
:100950004FEA410C7FEA6C5C02D150EA013C07D1BE
:100960004FEA430C7FEA6C5CD6D152EA033CD3D009
:100970005DF8040B704700BF8446104662468C4603
:100980001946634600E000BF01B5FFF7B7FF002836
:1009900048BF10F1000F01BD4DF808EDFFF7F4FF5F
:1009A0000CBF012000205DF808FB00BF4DF808EDEA
:1009B000FFF7EAFF34BF012000205DF808FB00BF0D
:1009C0004DF808EDFFF7E0FF94BF012000205DF82F
:1009D00008FB00BF4DF808EDFFF7CEFF94BF0120E4
:1009E00000205DF808FB00BF4DF808EDFFF7C4FFDD
:1009F00034BF012000205DF808FB00BF4FEA410230
:100A000012F5001215D211D56FF47873B3EB625260
:100A100012D94FEAC12343F0004343EA505311F087
:100A2000004F23FA02F018BF404270474FF0000019
:100A3000704750EA013005D111F0004008BF6FF057
:100A4000004070474FF00000704700BF10F8012BC6
:100A500011F8013B012A28BF9A42F7D0D01A7047FB
:100A6000034613F8012B002AFBD1181A01387047EE
:100A70004FEA410C7FEA6C5C02D150EA013C0AD19A
:100A80004FEA430C7FEA6C5C02D152EA033C02D18C
:100A90004FF0000070474FF00100704753B94AB95A
:100AA000002908BF00281CBF4FF0FF314FF0FF3076
:100AB00000F068B9ADF1080C6DE904CE00F006F85D
:100AC000DDF804E0DDE9022304B070472DE9F047CA
:100AD000089D0C46002B4ED194468C458646B2FAB2
:100AE00082F262D94AB1C2F12003914020FA03F3A5
:100AF0000CFA02FC194300FA02FE4FEA1C47B1FB54
:100B0000F7F407FB14111FFA8CF64FEA1E4343EA71
:100B1000014304FB06F199420AD91CEB030304F1DB
:100B2000FF3080F01081994240F20D81023C634415
:100B3000591AB1FBF7F007FB101100FB06F61FFA7C
:100B40008EF343EA01439E420AD91CEB030300F1F2
:100B5000FF3180F0FA809E4240F2F7806344023811
:100B600000219B1B40EA04401DB1D3400022C5E98F
:100B70000032BDE8F0878B4205D90DB1C5E900010F
:100B800000210846F5E7B3FA83F1002946D1A342D4
:100B900002D39042C0F0EE80861A64EB030301207A
:100BA000002DE6D0C5E90063E3E7002A40F08F801E
:100BB000A1EB0C0401214FEA1C481FFA8CF7B4FB8F
:100BC000F8F608FB164407FB06F04FEA1E4343EA1B
:100BD0000443984208D91CEB030306F1FF3402D208
:100BE000984200F2CB8026461C1AB4FBF8F008FBB2
:100BF000104400FB07F71FFA8EF343EA04439F42B9
:100C000008D91CEB030300F1FF3402D29F4200F22B
:100C1000AE802046DB1B40EA0640A5E7C1F1200775
:100C20008B4022FA07FC4CEA030C24FA07F64FEA41
:100C30001C49B6FBF9F81FFA8CFE09FB186620FA6E
:100C400007F38C4000FA01FA08FB0EF01C43230C5A
:100C500043EA0643984202FA01F20AD91CEB030365
:100C600008F1FF3680F0818098427ED9A8F1020811
:100C700063441E1AB6FBF9F309FB136603FB0EFE71
:100C8000A4B244EA0644A64508D91CEB040403F1C7
:100C9000FF3066D2A64564D9023B644443EA08406B
:100CA000A0FB0283A4EB0E049C42C6461E4650D312
:100CB0004DD055B1BAEB0E0364EB060404FA07F706
:100CC000CB401F43CC40C5E90074002151E70CFA2A
:100CD00002FCC2F12003D9404FEA1C4820FA03F37A
:100CE00000FA02FEB1FBF8F008FB101194401C431F
:100CF0001FFA8CF7230C43EA014300FB07F19942EA
:100D000008D91CEB030300F1FF362CD299422AD9F3
:100D1000023863445B1AB3FBF8F108FB1133A4B249
:100D200044EA034401FB07F3A34208D91CEB040483
:100D300001F1FF3613D2A34211D902396444E41AF7
:100D400041EA00413BE70446F2E6084608E7C245AF
:100D5000AFD2B8EB020E63EB0C060138A9E73146BF
:100D6000EDE703469AE73046D4E7B04681E76344AF
:100D700002384FE706462346084611E7023E634421
:100D800032E700BF704700BF00B583B00E4B5A6911
:100D900042F001025A615B6903F001030193019B78
:100DA000002211460E2000F0B1FB0E2000F0BEFB29
:100DB000002211460F2000F0A9FB0F2000F0B6FB27
:100DC00003B05DF804FB00BF001002402DE9F041C4
:100DD00088B0002404940594069407942E4B9A69D5
:100DE00042F010029A619A6902F010020092009A91
:100DF0009A6942F020029A619A6902F020020192F7
:100E0000019A9A6942F004029A619A6902F0040216
:100E10000292029A9A6942F008029A619B6903F071
:100E200008030393039B1D4F22464FF4005138469D
:100E300000F084FDDFF868802246FF21404600F084
:100E40007DFD184E224640F20741304600F076FD07
:100E50004FF400530493112305930694022507953C
:100E600004A9384600F05CFCFF2304930127059792
:100E70000694079504A9404600F052FC40F207434F
:100E8000049305970694079504A9304600F048FCA2
:100E900008B0BDE8F08100BF001002400010014022
:100EA00000080140000C014008B50B480B4B0360E3
:100EB0000B4B436000238360C3604FF480420261A8
:100EC00043618361C361036200F0E2FE00B908BDC3
:100ED00000F03BF8FBE700BFDC06002000540040B8
:100EE000A086010010B586B00023029303930493FB
:100EF00005930268114B9A4201D006B010BD104C08
:100F0000A36943F00803A361A36903F008030093F6
:100F1000009BC0230293122303930323059302A98A
:100F2000084800F0FDFBE36943F40013E361E36963
:100F300003F400130193019BDFE700BF005400405E
:100F400000100240000C0140704772B6FEE700B589
:100F500091B02822002106A802F07CFC0023019316
:100F60000293039304930593012206924FF4803376
:100F700007930A9202220D920E934FF4E0130F93FF
:100F800006A801F02BF880B90F23019302210291EA
:100F9000002303934FF480620492059301A801F0AB
:100FA0004FFA20B911B05DF804FBFFF7CEFFFFF751
:100FB000CCFF000008B500F03FFAFFF7C8FFFFF7CD
:100FC00005FFFFF7E1FE00F009F9FFF76DFF00F004
:100FD0005DF90D4800F020F80C4801F03BFB01F0F2
:100FE0000DFF02F05FF80823094A0021084602F0CD
:100FF0007DF9084B08221021002002F031FA02F09E
:1010000027F802F025F8FCE7080800203807002040
:10101000508000085C80000810B5094B1860094C2E
:101020002068002302221946806802F0F3FA206843
:10103000002302221946406802F0ECFA10BD00BFFE
:10104000300700201800002000B583B001904FF653
:10105000FF73012201A90448006801F000FE019815
:1010600003B05DF804FB00BF3007002000B583B07B
:101070004FF6FF7301220DF107010448006801F0EB
:1010800054FE9DF8070003B05DF804FB3007002014
:1010900082B00E4B9A6942F001029A619A6902F09D
:1010A00001020092009ADA6942F08052DA61DB694B
:1010B00003F080530193019B054A536823F0E063DA
:1010C00043F00073536002B0704700BF001002404D
:1010D00000000140FEE7FEE7FEE7FEE7FEE770479F
:1010E0007047704708B500F0B9F908BD08B5024867
:1010F00000F074FA08BD00BF8007002008B5024860
:1011000000F06CFA08BD00BFC407002008B5024813
:1011100001F0D8FA08BD00BF380700200120704751
:1011200008B502F0E5FB162303604FF0FF3008BD61
:1011300008B54FF0FF31FFF7F3FFFEE770B50C463F
:101140001646002506E0FFF791FF214601F8010B46
:1011500001350C46B542F6DB304670BD70B50C4625
:101160001646002504E014F8010BFFF76DFF01356A
:10117000B542F8DB304670BD4FF0FF3070474FF49A
:1011800000534B60002070470120704700207047DB
:1011900010B503460C4A0D490D48006840B10C4893
:1011A00000680344521A934206D8094A136010BDDE
:1011B0000748084C0460F2E702F09AFB0C23036036
:1011C0004FF0FF30F3E700BF0050002000040000A4
:1011D00034070020600F00207047000000B587B082
:1011E00000230293039304930593009301931548FE
:1011F000154A026041F61F424260836042F20F725C
:10120000C2600361836101F04FFB90B94FF48053DA
:10121000029302A90B4801F07FFB68B900230093F9
:1012200001936946074801F0F7FB40B907B05DF844
:1012300004FBFFF78AFEE9E7FFF787FEEEE7FFF71B
:1012400084FEF3E7380700200004004002680E4BDC
:101250009A4200D0704700B583B003F50333DA69D2
:1012600042F00202DA61DB6903F002030193019BA1
:10127000002205211D2000F049F91D2000F056F93B
:1012800003B05DF804FB00BF0004004008B50A4845
:101290000A4B03604FF4E133436000238360C36073
:1012A00003610C2242618361C36101F0A8FC00B9B3
:1012B00008BDFFF74AFEFBE70808002000380140A0
:1012C00070B586B0002302930393049305930268DC
:1012D0002D4B9A4201D006B070BD044603F5584329
:1012E0009A6942F480429A619A6902F480420092BB
:1012F000009A9A6942F004029A619B6903F0040320
:101300000193019B4FF40073029302230393032381
:1013100005931E4E02A9304600F002FA4FF4806396
:10132000029300250395049502A9304600F0F8F9D0
:101330001748184B0360456085608023C3600561D2
:1013400045618561C56100F013F9B0B9104BE363E5
:101350005C621148114B03601023436000238360DB
:101360008022C260036143618361C36100F000F9C0
:1013700030B9094BA3635C62ADE7FFF7E6FDE5E733
:10138000FFF7E3FDF5E700BF00380140000801402A
:10139000C40700205800024080070020440002409B
:1013A000FFF71AFF0B480C490C4A002302E0D458FF
:1013B000C4500433C4188C42F9D3094A094C0023A1
:1013C00001E013600432A242FBD302F097FAFFF768
:1013D000F1FD704700000020C00600208C8D000841
:1013E000C0060020600F0020FEE7000010B5044694
:1013F0000E4B1A784FF47A73B3FBF2F30C4A106871
:10140000B0FBF3F000F0A0F868B90F2C01D901206F
:101410000AE0002221464FF0FF3000F077F8054B3C
:101420001C60002000E0012010BD00BF040000206F
:10143000000000200800002008B5074A136843F0A8
:1014400010031360032000F04FF80020FFF7CEFFD9
:10145000FFF71EFE002008BD00200240034A11686D
:10146000034B1B780B441360704700BF50080020EB
:1014700004000020014B1868704700BF500800208E
:10148000002808DB0901C9B200F1604000F56140A5
:1014900080F80013704700F00F000901C9B2014B3A
:1014A0001954704714ED00E000B500F00700C0F1DA
:1014B000070CBCF1040F28BF4FF0040C031D062BD2
:1014C0000FD9C31E4FF0FF3E0EFA0CF021EA0001C7
:1014D00099400EFA03FE22EA0E0241EA02005DF88C
:1014E00004FB0023EEE70000074AD36823F4E0631F
:1014F0001B041B0C000200F4E060034343F0BF63D5
:1015000043F40033D360704700ED00E010B50446AB
:10151000054BD868C0F30220FFF7C6FF01462046FE
:10152000FFF7AEFF10BD00BF00ED00E0002807DBB5
:1015300000F01F02400901239340024A42F8203084
:10154000704700BF00E100E00138B0F1807F0BD2AE
:101550004FF0E0235861054AF02182F82310002063
:10156000986107221A6170470120704700ED00E082
:1015700060B310B402460168154B0B441548A0FB3C
:1015800003031B099B001364134BD363022382F8EC
:101590002130086820F47F5020F0300053689468B0
:1015A0002343D46823431469234354692343946930
:1015B0002343D469234303430B600020906301233A
:1015C00082F8213082F8200010BC7047012070475B
:1015D000F8FFFDBFCDCCCCCC0000024038B5C36BCA
:1015E0001A6804682568016C04238B40134235D0C7
:1015F00015F0040F32D0236813F0200F03D12368B5
:1016000023F0040323600368434A934214D0143246
:10161000934218D01432934217D01432934217D009
:101620001432934217D01432934202D04FF08062AA
:1016300003E04FF4800200E00422384B5A60C36A92
:1016400003B1984738BD4022F7E74FF48062F4E7D2
:101650004FF48042F1E74FF48022EEE702238B4003
:1016600013423CD015F0020F39D0236813F0200F3D
:1016700006D1236823F00A032360012380F8213078
:101680000368254A934214D0143293421CD014327A
:1016900093421BD0143293421BD0143293421BD07E
:1016A0001432934202D04FF0007203E04FF4001264
:1016B00000E00222194B5A60002380F82030836A30
:1016C000002BBFD09847BDE72022F3E74FF400720C
:1016D000F0E74FF40052EDE74FF40032EAE7082359
:1016E0008B401342AED015F0080FABD0236823F027
:1016F0000E032360026CC16B012303FA02F24A60FD
:10170000836380F82130002380F82030036B002BA6
:1017100098D0984796E700BF0800024000000240BA
:1017200070B582B00024A446A2E07E4DAB4210D03A
:1017300007D97D4DAB420CD005F58035AB4208D0C2
:1017400013E0A5F58015AB4203D005F57025AB423B
:1017500007D18B68002B55D0012B4ED04261082455
:1017600003E0A5F58015AB42F3D0BEF1FF0F4BD8D7
:1017700006464FEA8C0233680F25954023EA05039D
:1017800004FA02F2134333604B6813F0805F6DD0AC
:10179000664B9A6942F001029A619B6903F001036A
:1017A0000193019B4FEA9C02951C614B53F8256005
:1017B0000CF00305AD000F23AB4026EA03065D4B9A
:1017C000984228D003F58063984200F08D8003F59D
:1017D0008063984200F08A8003F58063984218D0B5
:1017E000042319E0CC68C0E7CC680434BDE7CC68BA
:1017F0000834BAE7CC680C34B7E702610824B4E7D0
:101800000024B2E70424B0E7061DACF10802920000
:10181000B1E7032300E00023AB4033430232444DE1
:1018200045F822304B6813F4801F61D0424A936818
:1018300043EA0E0393604B6813F4001F5ED03E4AE8
:10184000D36843EA0E03D3604B6813F4003F5BD0C8
:10185000394A536843EA0E0353604B6813F4803FE0
:1018600058D0354A136843EA0E0313600CF1010C9B
:101870000B6833FA0CF253D0012202FA0CF203EA9D
:10188000020E32EA0303F1D14B68122B3FF64DAF43
:10189000122B3FF66AAF01A555F823F05317000845
:1018A000E5170008EF170008011800086B1700087B
:1018B0006B1700086B1700086B1700086B17000800
:1018C0006B1700086B1700086B1700086B170008F0
:1018D0006B1700086B1700086B1700086B170008E0
:1018E000E9170008F5170008012395E7022393E79D
:1018F000114A936823EA0E0393609CE70E4AD3686B
:1019000023EA0E03D3609FE70B4A536823EA0E03D2
:101910005360A2E7084A136823EA0E031360A5E7A1
:1019200002B070BD00002210000031100010024013
:101930000000014000080140000401400AB10161BB
:10194000704709040161704703685A6912F4806F97
:1019500001D1002070476FF480625A610023036355
:10196000202280F83D2080F83E30026C42F00402D4
:10197000026480F83C30012070472DE9F0410646B2
:101980000C46174698463BE0FFF774FD069BC01ACD
:10199000404502D8B8F1000F32D1012D18D033687C
:1019A0009B6924EA03039BB2B3FA83F35B099F426A
:1019B00026D100233363202286F83D2086F83E306E
:1019C000326C42F02002326486F83C30012027E07D
:1019D00033685B6924EA03039BB2B3FA83F35B09C0
:1019E000E5E733685B6924EA030C1FFA8CFCBCFA58
:1019F0008CFC4FEA5C1C674511D1B8F1FF3FC3D1A5
:101A0000C4F30745012DECD033689B6924EA030C2D
:101A10001FFA8CFCBCFA8CFC4FEA5C1CEBE7002044
:101A2000BDE8F0812DE9F84305460E4690469946FB
:101A300053E01A6842F400721A602B686FF48062F7
:101A40005A6100232B63202285F83D2085F83E3023
:101A50002A6C42F004022A6485F83C3001204AE0F6
:101A6000FFF708FDA0EB0900404502D8B8F1000FD0
:101A700033D1012F17D02B689B6926EA03039BB251
:101A8000003B18BF012343B300232B63202285F8BA
:101A90003D2085F83E302A6C42F020022A6485F809
:101AA0003C30012027E02B685B6926EA03039BB2E8
:101AB000003B18BF0123E6E72B689C6926EA040473
:101AC000A4B2003C18BF0124A4B12B685A6912F4D7
:101AD000806FAED1B8F1FF3FC2D1C6F30747012FE7
:101AE000EAD12B685C6926EA0404A4B2003C18BF62
:101AF0000124E9E70020BDE8F88370B504460D46EF
:101B0000164623685B6913F0800F21D12046FFF74A
:101B10001BFFF8B9B5F1FF3FF3D0FFF7ABFC801B1B
:101B2000A84201D8002DECD123685B6913F0800F27
:101B3000E7D100232363202284F83D2084F83E303F
:101B4000226C42F02002226484F83C30012000E044
:101B5000002070BD0120FCE72DE9F04385B004466C
:101B60000D4691461F46DDF830800D9E03681968CA
:101B700041F4807119600096434600224FF0011134
:101B8000FFF7FBFE60B9236805F0FE051D613346D3
:101B9000424626492046FFF745FF68B1012008E08C
:101BA00023681B6813F4807F02D04FF40073236412
:101BB000032005B0BDE8F0830023039323685A692E
:101BC00003929B690393039B324641462046FFF7ED
:101BD00094FF30B9012F0FD123685FFA89F61E6197
:101BE000E7E7236C042B01D00120E2E722681368A9
:101BF00043F400731360F7E723684FEA19221A6170
:101C0000324641462046FFF778FF20B923685FFA45
:101C100089F61E61CDE7236C042B01D00120C8E7B3
:101C20002268136843F400731360F7E702000100B1
:101C300070B504460D46164623685B6913F0040F21
:101C400021D12046FFF780FEF8B9B5F1FF3FF3D070
:101C5000FFF710FC801BA84201D8002DECD12368AF
:101C60005B6913F0040FE7D100232363202284F87B
:101C70003D2084F83E30226C42F02002226484F839
:101C80003C30012000E0002070BD0120FCE7000096
:101C9000002800F0CC8070B5044690F83D30002B51
:101CA00077D0242384F83D302268136823F00103A1
:101CB00013602268136843F40043136022681368BA
:101CC00023F40043136000F077FC62685A4B9A4299
:101CD00064D85A4B98428CBF00230123002B40F05C
:101CE000A8805749A1FB00318B0C25686A6822F057
:101CF0003F0242EA91426A6021680A6A22F03F028A
:101D000066684D4DAE424FD8013313430B622168D4
:101D1000CA6922F44F4222F0FF026568464B9D4299
:101D20004CD8431E6D00B3FBF5F3013340F6FC7055
:101D3000034278D0C3F30B031A43CA6121680B68CE
:101D400023F0C003E269206A024313430B60216859
:101D50008B6823F4034323F0FF032269E068024306
:101D600013438B602168CB6823F0FF036269A0698D
:101D700002431343CB602268136843F001031360EE
:101D800000202064202384F83D30206384F83E0046
:101D900070BD80F83C30FFF7A5F882E7294B9842E8
:101DA0008CBF0023012399E74FF4967505FB03F3DD
:101DB000254DA5FB03539B090133A6E7A668BEB9D1
:101DC000431E05EB450CB3FBFCF30133C3F30B03DC
:101DD000B3FA83F35B0943BBC6B9431E05EB450564
:101DE000B3FBF5F30133C3F30B0343F40043A3E761
:101DF000431E05EB850C0CEB8C0CB3FBFCF30133A1
:101E0000C3F30B03B3FA83F35B09E4E7431E05EB6B
:101E1000850505EB8505B3FBF5F30133C3F30B0330
:101E200043F4404388E7042386E7012384E7012045
:101E300070470120ACE700BFA08601007F841E0030
:101E400083DE1B43FF083D00D34D62102DE9F043B4
:101E500083B004460F46904699460C9EFFF70AFB56
:101E6000054694F83D00C0B2202803D0022003B0FC
:101E7000BDE8F0830095192301224B492046FFF766
:101E80007CFD002840F0898094F83C30012B00F064
:101E90008680012384F83C3023681A6812F0010F11
:101EA00003D11A6842F001021A602268136823F411
:101EB00000631360212384F83D30402384F83E30D2
:101EC000002323640A9B6362BDF82C306385638D15
:101ED0002385364BE362019500964B4642463946D0
:101EE0002046FFF739FE00285BD1238D002B35D02B
:101EF0002A4631462046FFF700FE20BB626A23686F
:101F000012781A61626A531C6362218D013989B2A9
:101F10002185638D9BB2013B9BB263852368586921
:101F200010F0040FE1D00029DFD052781A61636A03
:101F300001336362238D013B2385638D9BB2013B9B
:101F40009BB26385D1E7236C042B01D001208EE77F
:101F50002268136843F400731360F7E72A4631469A
:101F60002046FFF765FE50B1236C042B01D0012001
:101F70007DE72268136843F400731360F7E7226873
:101F8000136843F400731360202384F83D3000236A
:101F900084F83E3084F83C3069E7022067E702208D
:101FA00065E7012063E700BF020010000000FFFFAB
:101FB00082B0084B1B68084AA2FB03235B0A00FBA4
:101FC00003F3019300BF019B5A1E0192002BF9D12C
:101FD00002B0704700000020D34D6210002800F0CE
:101FE000F18170B582B00446036813F0010F2CD064
:101FF000994B5B6803F00C03042B1DD0964B5B6878
:1020000003F00C03082B12D06368B3F5803F41D076
:10201000002B55D103F1804303F504331A6822F4F1
:1020200080321A601A6822F480221A6037E08A4BE4
:102030005B6813F4803FE7D0874B1B6813F4003FC5
:1020400003D06368002B00F0BF81236813F0020FF8
:1020500075D0814B5B6813F00C0F5FD07E4B5B68D3
:1020600003F00C03082B54D02369002B00F08A8066
:102070007A4B01221A60FFF7FDF90546764B1B6883
:1020800013F0020F75D1FFF7F5F9401B0228F5D9BF
:1020900003209EE1704A136843F480331360636841
:1020A00043B3FFF7E7F905466B4B1B6813F4003F9A
:1020B000CBD1FFF7DFF9401B6428F5D9032088E175
:1020C000B3F5A02F09D0644B1A6822F480321A604D
:1020D0001A6822F480221A60E1E703F18043A3F535
:1020E0003C331A6842F480221A601A6842F4803243
:1020F0001A60D4E7FFF7BEF90546574B1B6813F487
:10210000003FA2D0FFF7B6F9401B6428F5D90320A1
:102110005FE1514B5B6813F4803FA5D14E4B1B68C8
:1021200013F0020F03D02369012B40F04F814A4A7C
:10213000136823F0F803616943EAC103136023685D
:1021400013F0080F33D0A369002B5CD0434B01225E
:10215000C3F88024FFF78EF905463F4B5B6A13F006
:10216000020F21D1FFF786F9401B0228F5D9032081
:102170002FE1394A136823F0F803616943EAC10388
:102180001360DCE7354B00221A60FFF773F9054650
:10219000314B1B6813F0020FD1D0FFF76BF9401BD6
:1021A0000228F5D9032014E10120FFF701FF23687D
:1021B00013F0040F00F09680274BDB6913F0805F6B
:1021C00034D1254BDA6942F08052DA61DB6903F0E1
:1021D00080530193019B0125214B1B6813F4807FE1
:1021E00026D0E368012B3DD0002B53D103F180436F
:1021F00003F504331A6A22F001021A621A6A22F005
:1022000004021A6233E0154B0022C3F88024FFF762
:1022100031F90546104B5B6A13F0020FC7D0FFF788
:1022200029F9401B0228F5D90320D2E00025D3E785
:102230000B4A136843F480731360FFF71BF90646DB
:10224000074B1B6813F4807FCBD1FFF713F9801B7A
:102250006428F5D90320BCE000100240000042428F
:10226000007000405F4A136A43F001031362E368A1
:1022700033B3FFF7FFF806465A4B1B6A13F0020F01
:102280002FD1FFF7F7F8801B41F288339842F3D93A
:1022900003209EE0052B09D0524B1A6A22F001025E
:1022A0001A621A6A22F004021A62E0E74D4B1A6AB7
:1022B00042F004021A621A6A42F001021A62D6E778
:1022C000FFF7D8F80646474B1B6A13F0020F08D0F9
:1022D000FFF7D0F8801B41F288339842F3D90320EE
:1022E00077E0E5B9E369002B72D03E4A526802F00C
:1022F0000C02082A56D0022B17D03B4B00221A663C
:10230000FFF7B8F80446374B1B6813F0007F47D03F
:10231000FFF7B0F8001B0228F5D9032059E0314A35
:10232000D36923F08053D361DCE72F4B00221A6678
:10233000FFF7A0F805462B4B1B6813F0007F06D073
:10234000FFF798F8401B0228F5D9032041E0236AE3
:10235000B3F5803F1AD023494B6823F47413226AE3
:10236000606A024313434B601F4B01221A66FFF75A
:1023700081F804461B4B1B6813F0007F0ED1FFF75A
:1023800079F8001B0228F5D9032022E0154A53688A
:1023900023F40033A1680B435360DCE7002018E00E
:1023A000002016E0012B16D00E4B5B6803F4803141
:1023B000226A914211D103F47013626A93420ED1E2
:1023C000002006E001207047012002E0012000E02B
:1023D000002002B070BD0120FBE70120F9E70120D9
:1023E000F7E700BF00100240000042420F4B5B685D
:1023F00003F00C02082A01D00D487047C3F3834252
:102400000C49885C13F4803F0BD0084B5B68C3F326
:102410004043094AD35C064A02FB00F0B0FBF3F0EC
:102420007047064B03FB00F0704700BF00100240EE
:1024300000127A00888000088480000800093D00AE
:10244000002800F0A08070B50D460446524B1B6872
:1024500003F007038B420BD24F4A136823F00703A4
:102460000B431360136803F007038B4240F08D8029
:10247000236813F0020F17D013F0040F04D0474A5B
:10248000536843F4E0635360236813F0080F04D0EB
:10249000424A536843F460535360404A536823F000
:1024A000F003A1680B435360236813F0010F31D090
:1024B0006368012B20D0022B25D0384A126812F015
:1024C000020F64D035494A6822F0030213434B607F
:1024D000FEF7D0FF0646314B5B6803F00C036268E1
:1024E000B3EB820F16D0FEF7C5FF801B41F2883395
:1024F0009842F0D9032045E0284A126812F4003FC0
:10250000E0D101203EE0254A126812F0007FD9D1C7
:10251000012037E0204B1B6803F00703AB420AD9C8
:102520001D4A136823F007032B431360136803F05D
:102530000703AB422DD1236813F0040F06D0174ACE
:10254000536823F4E063E1680B435360236813F09E
:10255000080F07D0114A536823F46053216943EAF6
:10256000C1035360FFF742FF0C4B5B68C3F30313D7
:102570000B4AD35CD8400B4B18600B4B1868FEF726
:1025800035FF002070BD012070470120FAE70120CF
:10259000F8E70120F6E700BF0020024000100240EB
:1025A000748000080000002008000020014B18681B
:1025B000704700BF0000002008B5FFF7F7FF044B8D
:1025C0005B68C3F30223034AD35CD84008BD00BF55
:1025D000001002406C80000808B5FFF7E7FF044BCD
:1025E0005B68C3F3C223034AD35CD84008BD00BF75
:1025F000001002406C80000810B4036A046A24F0E2
:1026000001040462846924F0F00C4CEA021223F005
:102610000A030B438261036210BC704710B4036A63
:10262000046A24F010040462846924F4704C4CEAB7
:10263000023223F0A00343EA01138261036210BC5B
:102640007047836823F070030B4343F007038360F4
:102650007047000090F83D30DBB2012B27D10223F8
:1026600080F83D300268D36843F00103D36003680B
:10267000114A934210D0B3F1804F0DD0A2F594329D
:10268000934209D002F58062934205D01A6842F065
:1026900001021A60002070479A6802F00702062AB9
:1026A00007D01A6842F001021A600020704701202A
:1026B00070470020704700BF002C014070477047F2
:1026C0007047704770B504460368DE681D6915F0F1
:1026D000020F10D016F0020F0DD06FF002021A6137
:1026E0000123037703689B6913F0030F5ED0FFF7A4
:1026F000E6FF0023237715F0040F12D016F0040F25
:102700000FD023686FF004021A6102232377236835
:102710009B6913F4407F4FD02046FFF7D0FF002382
:10272000237715F0080F12D016F0080F0FD023688A
:102730006FF008021A61042323772368DB6913F022
:10274000030F40D02046FFF7BAFF0023237715F090
:10275000100F12D016F0100F0FD023686FF0100278
:102760001A61082323772368DB6913F4407F31D093
:102770002046FFF7A4FF0023237715F0010F02D0B6
:1027800016F0010F2DD115F0800F02D016F0800F3A
:102790002FD115F0400F02D016F0400F31D115F0B7
:1027A000200F02D016F0200F33D170BDFFF786FF47
:1027B0002046FFF785FF9CE72046FFF77FFF204676
:1027C000FFF77EFFABE72046FFF778FF2046FFF7D5
:1027D00077FFBAE72046FFF771FF2046FFF770FF4B
:1027E000C9E723686FF001021A612046FEF7ACFBCF
:1027F000C9E723686FF080021A61204600F043F9B0
:10280000C7E723686FF040021A612046FFF759FFBF
:10281000C5E723686FF020021A61204600F032F904
:10282000C3E7000003681F4A90420AD0B0F1804F0E
:1028300007D0A2F59432904203D002F58062904214
:1028400003D123F070034A681343164A90420AD01A
:10285000B0F1804F07D0A2F59432904203D002F538
:102860008062904203D123F44073CA68134323F07B
:1028700080034A69134303608B68C3620B688362F9
:10288000084B98420AD001234361036913F0010FFA
:1028900003D0036923F00103036170470B690363ED
:1028A000F1E700BF002C014040B310B5044690F89A
:1028B0003D30F3B1022384F83D30214651F8040B3A
:1028C000FFF7B0FF012384F8463084F83E3084F8E7
:1028D0003F3084F8403084F8413084F8423084F846
:1028E000433084F8443084F8453084F83D3000208B
:1028F00010BD80F83C30FEF7A9FCDBE701207047F3
:1029000010B4846824F47F4C42EA03220A4342EA6A
:102910000C02826010BC704790F83C30012B78D0DC
:1029200010B50446012380F83C30022380F83D3086
:102930000268936823F47F4323F0770393600B6866
:10294000602B4CD029D8402B54D00CD9502B22D1FD
:10295000CA6849680068FFF74FFE50212068FFF7FA
:1029600070FE002005E0202B0DD009D9302B0AD0B5
:102970000120012384F83D30002384F83C3010BD51
:102980000BB1102B05D119462068FFF75AFE002025
:10299000EFE70120EDE70120EBE7B3F5805F34D0EE
:1029A000B3F5005F0CD1CB684A6889680068FFF70F
:1029B000A7FF2268936843F4804393600020D8E720
:1029C000702B24D1CB684A6889680068FFF798FFAC
:1029D0002268936843F0770393600020C9E7CA68D0
:1029E00049680068FFF71AFE60212068FFF729FE9A
:1029F0000020BEE7CA6849680068FFF7FDFD402176
:102A00002068FFF71EFE0020B3E70020B1E7012099
:102A1000AFE702207047000090F83C20012A2CD03C
:102A200010B40346012280F83C20022280F83D20A9
:102A300002685068946820F0700C086840EA0C0046
:102A400050601A680E4882420AD0B2F1804F07D017
:102A5000A0F59430824203D000F58060824204D118
:102A600024F08004496821439160012283F83D20CD
:102A7000002083F83C0010BC70470220704700BF64
:102A8000002C014070477047026802F10C0353E8C4
:102A9000003F23F490730C3242E800310029F3D157
:102AA000026802F1140353E8003F23F001031432DB
:102AB00042E800310029F3D1036B012B05D020231C
:102AC00080F84230002303637047026802F10C0370
:102AD00053E8003F23F010030C3242E80031002994
:102AE000F3D1ECE710B504460268136923F44053B0
:102AF000C1680B43136183680269134342691A4337
:102B00000168CB6823F4B05323F00C031343CB606C
:102B10000268536923F4407381690B43536102686F
:102B2000134B9A4220D0FFF747FD024602EB820288
:102B300002EB820263689B00B2FBF3F20D48A0FB3C
:102B400002314909642303FB11231B013233A0FB2B
:102B500003035B0903F0F00202EB011203F00F0321
:102B6000216813448B6010BDFFF736FD0246DDE798
:102B7000003801401F85EB512DE9F04383B0054635
:102B80000E4617469946DDF828802B681C6836EA01
:102B900004040CBF01240024BC4228D1B8F1FF3F3B
:102BA000F3D0FEF767FCA0EB0900404523D8B8F14D
:102BB000000F22D02B68DA6812F0040FE5D0802EC7
:102BC000E3D0402EE1D01A6812F0080FDDD00024C7
:102BD00001941A6801925B680193019B2846FFF7F4
:102BE00053FF08236B6485F84040012000E000207B
:102BF00003B0BDE8F0830320FAE70320F8E760B3F1
:102C000010B5044690F8413013B3242384F84130C2
:102C10002268D36823F40053D3602046FFF762FF95
:102C20002268136923F4904313612268536923F0E7
:102C30002A0353612268D36843F40053D360002011
:102C40006064202384F8413084F84230606310BD12
:102C500080F84030FEF734FBD7E7012070472DE9BC
:102C6000F04182B01E4690F84130DBB2202B56D1A5
:102C700004460D469046002955D00AB901204FE080
:102C800000234364212380F84130FEF7F3FB07461D
:102C9000A4F82480A4F82680A368B3F5805F02D04E
:102CA0004FF0000814E023692BB34FF000080FE049
:102CB000202384F84130032032E038F8023B2268B8
:102CC000C3F308035360E28C92B2013A92B2E284F9
:102CD000E38C9BB293B100963B46002280212046B4
:102CE000FFF74AFF0028E3D1002DE6D015F8012BAD
:102CF00023685A60E7E7A8460025E9E700963B46C7
:102D0000002240212046FFF737FF18B9202384F81E
:102D1000413005E0202384F84130032000E0022008
:102D200002B0BDE8F0810120FAE72DE9F04182B060
:102D30001E4690F84230DBB2202B59D104460D4696
:102D40009046002958D00AB9012052E0002343647C
:102D5000222280F842200363FEF78CFB0746A4F88A
:102D60002C80A4F82E80A368B3F5805F02D04FF0CA
:102D700000081CE0236913B14FF0000817E0A846D3
:102D8000002514E0202384F84230032031E023683A
:102D90005B68C3F3080328F8023B03E023685B6821
:102DA0002B700135E28D92B2013A92B2E285E38D49
:102DB0009BB2C3B100963B46002220212046FFF77C
:102DC000DBFE0028DED1002DE1D0A368B3F5805FE3
:102DD000E4D013B92369002BE0D023685B6803F0CB
:102DE0007F032B70DDE7202384F84230002000E0D1
:102DF000022002B0BDE8F0810120FAE7F0B587B00B
:102E000001248DF817402A4D4FF0FF3602960194A9
:102E10000DF11703009323466B22D0212846FFF7BC
:102E200015F800238DF81630029601940DF1160363
:102E3000009323466C22D0212846FFF707F8092388
:102E40008DF81530029601940DF115030093234679
:102E50001922D0212846FEF7F9FF06238DF81430F9
:102E60000296019405AB009323461A22D0212846EE
:102E7000FEF7ECFF18278DF81370029601940DF100
:102E80001303009323461B22D0212846FEF7DEFFC2
:102E90008DF81270029601940DF1120300932346EF
:102EA0001C22D0212846FEF7D1FF07B0F0BD00BF9D
:102EB000DC06002008B530B900224FF480710548C7
:102EC000FEF73CFD08BD01224FF480710148FEF77A
:102ED00035FDF7E7000C014008B530B900224FF48A
:102EE00000710548FEF72AFD08BD01224FF400716C
:102EF0000148FEF723FDF7E7000C014010B586B04E
:102F0000002204E00133B3F57A7FFBD30132B2F53E
:102F10007A7F01D20023F6E7144B9A6942F0080247
:102F20009A619B6903F008030193019B00230293BC
:102F30000393049305934FF4807302931123039337
:102F4000032305930A4C02A92046FEF7E9FB4FF440
:102F50000073029302A92046FEF7E2FB0120FFF76F
:102F6000A9FF0120FFF7B8FF06B010BD0010024016
:102F7000000C014008B50120FFF7AEFF0120FFF76C
:102F800099FF0020FFF7A8FF0020FFF793FF08BD7F
:102F900008B50020FFF7A0FF0120FFF78BFF0120FD
:102FA000FFF79AFF08BD38B5054600240FE08023DF
:102FB00023411D4214BF01200020FFF78DFF012097
:102FC000FFF778FF0020FFF775FF0134E4B2072C0C
:102FD000EDD90120FFF76EFF0020FFF76BFF38BD32
:102FE00010B50446FFF7C6FF7820FFF7DCFF00208E
:102FF000FFF7D9FF2046FFF7D6FFFFF7C9FF10BD47
:1030000070B506460D46FFF7B5FF7820FFF7CBFFFA
:103010004020FFF7C8FF002404E0305DFFF7C3FF46
:103020000134E4B2AC42F8D3FFF7B2FF70BD10B583
:103030000C4640F0B000FFF7D3FF200940F010002D
:10304000FFF7CEFF04F00F00FFF7CAFF10BD00002E
:1030500010B500240BE000212046FFF7E8FF802197
:10306000044800EBC410FFF7CBFF0134E4B2072C97
:10307000F1D910BD5408002000200BE0084A02EBF3
:10308000C0120021D1540133DBB213F0800FF5D010
:103090000130C0B2072801D80023F6E7704700BF0F
:1030A0005408002008B5FFF729FFAE20FFF798FF6E
:1030B000D520FFF795FF8020FFF792FFA820FFF7AC
:1030C0008FFF3F20FFF78CFFD320FFF789FF002001
:1030D000FFF786FF4020FFF783FFA120FFF780FF67
:1030E000C820FFF77DFFDA20FFF77AFF1220FFF7F5
:1030F00077FF8120FFF774FFCF20FFF771FFD92002
:10310000FFF76EFFF120FFF76BFFDB20FFF768FF93
:103110003020FFF765FFA420FFF762FFA620FFF72E
:103120005FFF8D20FFF75CFF1420FFF759FFAF20F2
:10313000FFF756FFFFF7A0FFFFF78AFF08BD00006B
:103140002DE9F04114461D460B4634E046F3CF0608
:103150001C4F07EBC61717F80280D3F1000E03F0DF
:1031600007060EF0070E58BFCEF100064FF0010E15
:103170000EFA06FE6FEA0E0E4FFA8EFE08EA0E08F1
:1031800007F802800CF1010C0FFA8CFC624600EB90
:10319000040EF4450DDA1FFA8CFCBCF17F0FF1D858
:1031A000002BEFDB3F2BEDDC1E46002BCEDADE1DC5
:1031B000CCE701331BB24A19934201DA8446E5E7B2
:1031C000BDE8F081540800202DE9F04F83B0064699
:1031D0000C4615469A460C9FFFF7B2FF4FF0000BC6
:1031E0004DE0E21D0DE0013A083116E00133DBB29B
:1031F000AB423ED29C46F0187F28F7D82246002CDE
:10320000EFDBD210D4F1000E04F007010EF0070E30
:1032100058BFCEF10001002CE5DB4244072A0FD84D
:10322000DFF87CE00EEBC21E1EF8009008FB05CB19
:1032300017F80BB00BFA01FB49EA0B090EF80090E6
:1032400002F1010EBEF1070FD0D87246DFF850E050
:103250000EEBC21212F800E008FB05CC17F80CC008
:10326000C1F108014CFA01F14EEA010E02F800E04A
:10327000BCE7DDF804B00BF1010B5FFA8BFBBAF190
:10328000010307D4D846BBEBE30F05DC0023CDF8E0
:1032900004B0ADE70733F5E703B0BDE8F08F00BF3A
:1032A0005408002000B583B0082B04D0062B0CD0A6
:1032B00003B05DF804FB203A0A4B03EB02130093C2
:1032C00010230822FFF780FFF2E7203A02EB4202C8
:1032D000054B03EB4203009308230622FFF774FF1C
:1032E000E6E700BFFC830008C08100082DE9F04F2D
:1032F00085B083468A4690461F46002635464CE0F8
:1033000003F0E002C02A2BD003F0F002E02A53D0F1
:1033100003F0F802F02A68D16A1C92B28DF80830E6
:1033200018F80220002A00F09680AB1C9BB28DF8A2
:10333000092018F80320002A00F08D80EB1C9BB2B6
:103340008DF80A2018F80330002B00F08480043533
:10335000ADB28DF80B3000238DF80C3004230FE054
:103360006A1C92B28DF8083018F80230002B72D027
:103370000235ADB28DF8093000238DF80A300223F2
:10338000012B35D106EB0B003B469DF8082051463A
:1033900000B2FFF787FF3E44B6B218F80530002BA5
:1033A00059D013F0800FABD10135ADB28DF8083094
:1033B00000238DF80930E5E76A1C92B28DF80830D9
:1033C00018F80220002A46D0AB1C9BB28DF80920C9
:1033D00018F80330002B3ED00335ADB28DF80A301B
:1033E00000238DF80B300323CAE70135ADB2D4E7D3
:1033F0000024A14604EBC40304EB8303174A981886
:10340000D35C33B102A9FDF721FB10B10134A4B2A2
:10341000EFE7082F0CD0062FBFD106EB0B000623D9
:103420003F22514600B2FFF73DFF0636B6B2B4E781
:1034300006EB0B0009EBC90309EB8303074A1344AE
:103440000533009310231A46514600B2FFF7BCFE25
:103450001036B6B2A1E705B0BDE8F08F988000083D
:1034600008B470B5C3B004460D46164647AA52F8D4
:10347000041B019202A800F0E3F9334602AA294690
:103480002046FFF733FF43B0BDE8704001B07047FE
:10349000002310B50446C0E90033C0E9043383605B
:1034A00081814366C2818361194608225C3000F045
:1034B000D1F90D4BE46123620C4B63620C4BA362A8
:1034C0000C4BE3620C4B9C4206D003F16802944221
:1034D00002D0D0339C4205D104F15800BDE8104021
:1034E00000F030BA10BD00BF8D370008AF370008BC
:1034F000E73700080B380008540C0020024A034943
:10350000034800F069B800BF0C000020AD5300086C
:103510002000002041680C4B10B59942044601D0B0
:1035200001F044FFA168094B994202D0204601F006
:103530003DFFE168064B994204D02046BDE81040AB
:1035400001F034BF10BD00BF540C0020BC0C0020A3
:10355000240D002010B50B4B0B4C0C4A20461A6072
:1035600004210022FFF794FF04F1680001220921E1
:10357000FFF78EFF04F1D0000222BDE810401221B7
:10358000FFF786BF8C0D0020540C0020FD3400088E
:10359000014800F0D9B900BF960D0020014800F0A5
:1035A000D4B900BF960D002010B50446FFF7F0FF18
:1035B000636B1BB1BDE81040FFF7F0BF044B6363C2
:1035C000044B1B68002BF5D1FFF7C4FFF2E700BFE7
:1035D000153500088C0D00202DE9F8430746884674
:1035E00014460026D4E90195B9F1010905D52468EE
:1035F000002CF7D13046BDE8F883AB89012B07D901
:10360000B5F90E30013303D029463846C04706438A
:103610006835E9E72DE9F7431D465B4B04461F6813
:103620000E46904627B17B6B13B93846FFF7BCFFB7
:10363000B8F1020F06D0B8F1010F00F2A180002D01
:10364000C0F29E80636ED90705D4A3899A0502D47F
:10365000A06D00F079F92146384601F081FF216B19
:1036600041B104F14003994202D0384600F0D4F948
:10367000002323630023A3616360A3891B0603D592
:103680003846216900F0C8F9A389B8F1020F23F484
:103690004A6323F00303A38168D001AB6A46214645
:1036A000384601F082FFA3891843A0812DBB009DFD
:1036B000284600F071FA0646002859D1DDF800903E
:1036C000A94547D14FF0FF35B4F90C3043F0020261
:1036D000A2810022A26004F1430222602261012241
:1036E0006261626ED60704D4980502D4A06D00F022
:1036F0002CF9284603B0BDE8F083002ED8D07B6BB0
:1037000013B93846FFF750FF009BC4E90465AB428C
:1037100018BFA38926601CBF43F40063A381B8F1DE
:10372000010F02BFA38943F00103A381B4F90C3058
:1037300013F008021ED0D90741BF00226D42A260DB
:10374000A56158BFA560626ED20701D49B0513D551
:103750000025CEE7484600F01FFA06460028B1D003
:10376000A3894D4643F08003A381C8E70025ABE75A
:10377000A946F5E7A260E6E7A06D00F0E6F8E7E706
:103780004FF0FF35B5E700BF1800002010B50C461C
:10379000B1F90E1000F088F80028ABBF236DA389A3
:1037A0001B1823F48053ACBF2365A38110BD2DE902
:1037B000F0411F468B890546DB050C46164605D5AC
:1037C00002230022B1F90E1000F05CF8A389324602
:1037D00023F48053A38128463B46B4F90E10BDE87C
:1037E000F04100F073B810B50C46B1F90E1000F0BE
:1037F00049F8431CA38915BF206523F4805343F483
:103800008053A38118BFA38110BDB1F90E1000F041
:1038100029B8000000B59BB0009104916FF0004101
:103820000591029105490391694600F003FC0022CD
:10383000009B1A701BB05DF804FB00BF0802FFFF7D
:1038400013460A46014602480068FFF7E3BF00BF7F
:103850001800002003460244934200D1704703F849
:10386000011BF9E738B50023054D044608462B60D7
:10387000FDF782FC431C02D12B6803B1236038BDE5
:10388000900D002038B50446084611460022054D2B
:103890002A601A46FDF77AFC431C02D12B6803B15B
:1038A000236038BD900D002038B504460846114607
:1038B0000022054D2A601A46FDF740FC431C02D148
:1038C0002B6803B1236038BD900D002038B5044645
:1038D000084611460022054D2A601A46FDF73EFCB7
:1038E000431C02D12B6803B1236038BD900D00202A
:1038F000014B1868704700BF1800002070B5002603
:103900000C4D0D4C641BA410A64209D104F094FB8D
:1039100000260A4D0A4C641BA410A64205D170BDB6
:1039200055F8043B98470136EEE755F8043B9847B5
:103930000136F2E7808D0008808D0008808D000838
:10394000888D00087047704770477047024B13B16D
:10395000024800F005B87047000000000557000855
:10396000002301461A46184601F02EBF2DE9F84300
:1039700006460820894601F0D9FE8046234F30468E
:1039800000F04CFBBB685D6825F00305A5F1110450
:10399000A4EB09044444B4FBF8F4013C08FB04F430
:1039A000A04505DD304600F03FFB0020BDE8F88370
:1039B0000021304601F096FEBB682B449842F1D1BD
:1039C0003046614201F08EFE013010D100213046B8
:1039D00001F088FEBA68831A0F2BE3DD0C4943F02F
:1039E000010309685360401A0A490860DAE7BB68B6
:1039F000084A2D1B45F001055D60136830461B1B0E
:103A0000136000F011FB0120D0E700BF4C01002043
:103A1000440100209C0D0020F8B504460F46002903
:103A200000F0B18000F0FAFA57F8042C564D22F05D
:103A30000100A7F1080303EB000CA968DCF804609F
:103A4000614526F0030602F001021BD106443AB993
:103A500057F8082C9B1A1644D3E90212CA609160E9
:103A600046F001025A60AB60484B1B68B34204D871
:103A7000474B20461968FFF779FF2046BDE8F8401C
:103A800000F0D2BACCF80460002A38D157F8081CEC
:103A900005F108075B1A08449968B94231D0DF681C
:103AA000CF60B9600CEB06014968C9070BD4DCF89C
:103AB000081030443ABB374EB14224D10122C5E947
:103AC0000433C3E9021140F0010159601850002A83
:103AD000D3D1B0F5007F1BD20121C208400981403B
:103AE000686801320143696055F8320005EBC20194
:103AF0000839C3E9020145F83230C360BDE700224E
:103B0000D0E70122CEE7DCF80C60CE60B160DAE7E6
:103B1000B0F5206F4FEA502214D282093832511C7E
:103B200055F8311005EBC2068E4225D101209210C6
:103B300000FA02F2686802436A60C3E90216B360E1
:103B4000CB609AE7142A01D85B32E8E7542A02D8FE
:103B5000020B6E32E3E7B2F5AA7F02D8C20B7732CE
:103B6000DDE740F254518A4296BF820C7E227C32BD
:103B7000D5E789688E4204D04A6822F00302824267
:103B8000F7D8CE68D9E7F8BD4C01002048010020E5
:103B9000CC0D002054010020024B0146186800F0B3
:103BA00003B800BF1800002001F10B03162B2DE90C
:103BB000F74F054606D933F0070704D50C232B60D1
:103BC0000024A1E11027B942F8D8284600F026FACF
:103BD000B7F5FC7FAE4E37D207F108023244546885
:103BE000A2F108018C424FEAD70302D1D468A24265
:103BF00010D0D4E902126368CA6023F00303916015
:103C000023445A6842F001025A60284600F00CFA38
:103C1000083479E1023334699E498C4277D0626876
:103C200022F0030CACEB07000F2848DDE21940F04E
:103C3000010347F001076760C6E90422C2E90211E7
:103C4000536044F80C00E0E77B0A2AD0042B12D81A
:103C5000BB0938335A1C06EBC2025468A2F1080CA7
:103C6000644506D0626822F00302D01B0F281CDDD9
:103C7000013B0133CFE7142B01D85B33EAE7542B28
:103C800002D83B0B6E33E5E7B3F5AA7F02D8FB0BF6
:103C90007733DFE740F25452934204D8BB0C7C33B5
:103CA000D8E73F23D6E77E23D4E70028E16804DB8A
:103CB000A368D9608B60A318A3E70C46D0E700285F
:103CC000C6E9041107DBA444DCF8043043F0010327
:103CD000CCF8043099E7BCF5007F706880F09380E1
:103CE0004FEADC024FEA5C1E4FF0010C0CFA0EFCAE
:103CF0004CEA0000013256F832C0706006EBC20098
:103D00000838C4E902C046F83240CCF80C40012221
:103D1000981082407068904226D3104206D123F05A
:103D200003035200104203F10403FAD006EBC30868
:103D3000C1469E46D9F80C404C4540F0B7800EF184
:103D4000010E1EF0030F09F10809F3D1980740F0A6
:103D5000E180736823EA0203736070685200904246
:103D600002D3002A40F0E280D6F808A0DAF8043046
:103D700023F00309B94504D3A9EB07020F2A00F386
:103D80004081454B082019680AEB090B1031394472
:103D9000019101F0CBFC414A01991368804601333F
:103DA0001FBF01F1FF310918434219402846019114
:103DB00001F098FC421C044600F0F680834501990E
:103DC000364A02D9B24540F0EF80354BA34518681A
:103DD00008F1FF3C0844186040F0AA801BEA0C0F71
:103DE00040F0A680B268494441F0010151602D4A7B
:103DF0001B6811688B4288BF13602B4A11688B4285
:103E000088BF1360D0E0BCF5206F4FEA5C2218D267
:103E10004FEA9C12383202F1010E56F83EE006EBF2
:103E2000C208F0452BD14FF0010C92100CFA02F2AF
:103E300002437260C4E902E8C8F80840CEF80C40BA
:103E400065E7142A01D85B32E5E7542A03D84FEA24
:103E50001C326E32DFE7B2F5AA7F03D84FEADC32BC
:103E60007732D8E740F2545E724596BF4FEA9C42E3
:103E70007E227C32CFE7DEF808E0F04505D0DEF8A0
:103E8000042022F003026245F5D8DEF80C80D1E769
:103E90004C01002054010020CC0D002044010020E2
:103EA0009C0D0020C80D0020C40D00206068D4F8CF
:103EB0000CC020F00300A0EB070ABAF10F0F12DDCF
:103EC000A368E21947F001076760C3F80CC0CCF89B
:103ED00008304AF00103C6E90422C2E90211536026
:103EE00044F800A091E6BAF1000F11DB20444368CA
:103EF00043F00103436054F8083F2846C3F80CC060
:103F0000CCF8083000F090F8204603B0BDE8F08F00
:103F1000644611E758F80809013B40453FF416AFE5
:103F20001BE7043352001042FBD0FFE67346FAE76A
:103F3000D2F800E0BEF1FF3F1BBFA4EB0B0B0BEB75
:103F4000000214601A6014F0070B0EBF5846CBF144
:103F500008002418621802EA0C018044A8EB01084A
:103F600008EA0C0841462846019201F0BBFB431CBD
:103F7000019A294B07D1BBF1000F23D04FF0000865
:103F8000ABF1080010441A68001B4044424440F062
:103F90000100B245B4601A6060603FF428AFB9F127
:103FA0000F0F12D801236360B3685B6823F003032B
:103FB000BB42A3EB070201D30F2A22DC284600F004
:103FC00033F8FDE51046D846DDE70521DAF8042090
:103FD000A9F10C0929F0070902F0010242EA0902DD
:103FE000CAF80420B9F10F0F0AEB0902C2E9011166
:103FF0007FF6FDAE28460AF10801FFF70DFD064BDE
:10400000F5E6B46847F0010342F00102274463601B
:10401000B7607A60F9E500BF9C0D00200148FFF70A
:1040200093BC00BF940D00200148FFF78EBC00BF79
:10403000940D00202DE9F04FD7B0884691461E46DA
:10404000079001F029FB036818461A93FCF708FD56
:10405000B8F80C301190190615D5D8F8103093B96E
:1040600040210798FFF7A0FDC8F80000C8F810002D
:1040700030B90C23079A13604FF0FF331393EFE12D
:104080004023C8F8143000230022CDE92B330893D5
:104090000023CDE90E230023CDE91C332DAC2A9457
:1040A0000D9316931B9313934B461D4613F8012B48
:1040B0000AB1252AF9D1B5EB09070DD02C9BC4E92B
:1040C00000973B442C932B9B0133072B2B9375DCE0
:1040D0000834139B3B4413932B78002B01F024816D
:1040E00000226B1C93464FF0FF358DF88B20129207
:1040F00013F8012B0A9210930A9B203B5A2B00F2D3
:104100009685DFE813F09E0094059405A6009405BB
:1041100094059405860094059405A900B3009405C0
:10412000B000B5009405CE00D100D100D100D1007F
:10413000D100D100D100D100D1009405940594059F
:10414000940594059405940540019405FF00110120
:104150004001400140019405940594059405E20056
:10416000940594058F04940594059405D70494054B
:10417000F604940594051805940594059405940592
:10418000940594059405940540019405FF001301DE
:10419000400140014001E5001301F9009405F200DF
:1041A00094056C049104C604F9009405D7049C009E
:1041B000F80494059405650094059C004146079811
:1041C0002AAA02F0A7FC002840F045812DAC80E728
:1041D000A64B1D931BF0200300F0B084073626F099
:1041E00007031A4652F8086B5F680B921BF0010F29
:1041F0000AD056EA070307D030238DF88C300A9B8B
:104200004BF0020B8DF88D3002232BF4806B00F005
:1042100019BC079801F040FA436818461B93FCF755
:104220001FFC1690079801F037FA83680D93169BD0
:104230002BB10D9B1BB11B780BB14BF4806B109B0A
:1042400056E79DF88B30002BF9D120238DF88B3069
:10425000F5E74BF0010BF2E756F8043B002B129305
:10426000EDDA5B4212934BF0040BE8E72B23EDE70A
:10427000109B13F8012B2A2A0A920FD156F8045BDF
:10428000109345EAE575DAE701FB052513F8012BE4
:104290000A920A9A303A092AF6D92CE700250A210F
:1042A000F7E74BF0800BCAE700220A21109B12921D
:1042B0000A9A1298303A01FB0022129213F8012B4D
:1042C0000A92303A092AF3D915E74BF0080BB6E702
:1042D000109B1B78682B01BF109B4BF4007B0133B4
:1042E000109318BF4BF0400BA9E7109B1B786C2B69
:1042F00005D1109B013310934BF0200B9FE74BF03F
:10430000100B9CE7324652F8043B8DF8F430002342
:104310000B928DF88B309A4601251F461E4614934A
:104320000C930DF1F409CDE14BF0100B1BF0200FB5
:1043300011D0073626F007031A4652F8086B5F685B
:104340000B92002F05DA2D23764267EB47078DF895
:104350008B30012379E3334653F8047B1BF0100FB5
:104360000B9302D03E46FF17EBE71BF0400F03D044
:104370003EB247F3C037E4E71BF4007FF2D07EB2D1
:1043800047F3C017DDE7073626F007031946F1E8C3
:104390000223CDE90E230E9B0B911E930F9B4FF032
:1043A000FF3223F000431F93DDE91E01304BFCF781
:1043B0005FFB08BBDDE91E014FF0FF322C4BFCF721
:1043C000FFFAC8B9DDE90E0100220023FCF7EEFA7E
:1043D00010B12D238DF88B30264A274B0A994FF0C8
:1043E000000A4729D4BF9146994603252BF0800B3C
:1043F000CDF850A000F0D0BFDDE90E2310461946DD
:10440000FCF736FB824640B10F9B1C4A002BBCBF19
:104410002D238DF88B301A4BE0E70A9B612B23D0BC
:10442000412B2FD158233022632D8DF88C208DF80D
:104430008D304BF0020B40F3A8800798691CFFF702
:10444000B3FB8146002840F0A580B8F80C3043F05B
:104450004003A8F80C30B8F80C305B063FF50CAE02
:10446000139857B0BDE8F08F7823DCE7FC8900088B
:10447000FFFFEF7FEC890008F0890008F48900084D
:10448000F88900086A1C00F087800A9B23F020034B
:10449000472B02D10DB9AA4601254BF48073159321
:1044A0000F9B002B7ADA0E9B18930F9B03F10043AE
:1044B00019932D2320930A9B23F02003412B0C9367
:1044C00040F0D681DDE9180124AA01F049F9002263
:1044D0004FF07F53FBF7F8FF02460B46CDE9082368
:1044E00000220023FCF758FA08B1012324932F4A35
:1044F0002F4B0A994E46612918BF1A466F1E149217
:10450000DDE9080100222B4BFBF7DEFF02460B46DC
:10451000CDE90823FCF772FA1790FBF76BFF024610
:104520000B46DDE90801FBF717FE02460B46CDE915
:104530000823149B179A9B5C06F8013B7B1C06D052
:104540007B1E219300220023FCF726FA60B3002291
:10455000DDE90801184BFCF747FA78BBDDE90801F3
:104560000022154BFCF718FA10B1179BDA0725D477
:1045700033463020F119CA1A002A80F276817B1C5A
:104580000137B8BF00231E442CE04FF0000A0DF1A4
:10459000F40982E7824680E706257EE7DDE90E23FF
:1045A000CDE91823002385E7219FA9E7FC890008AE
:1045B0000D8A0008000030400000E03F3020149BCE
:1045C0002896D97B289A531E289312F8013C8B42D7
:1045D00000F04881392B0BBF149B01339B7ADBB26F
:1045E00002F8013CA6EB090308930C9B249E472B81
:1045F00040F08781F31C02DBAE4240F3A5810A9BA9
:10460000023B0A930A999DF8282021F020014129B4
:1046100008BF0F3206F1FF3306BFD2B201210021DD
:10462000002B8DF89820B4BF2D222B222493B8BFE5
:10463000C6F10103092B8DF8992040F378810A26F1
:104640000DF1A700B3FBF6F5024606FB153130313C
:1046500002F8011C194663292B4600F1FF30F1DCFA
:104660003033911E00F8013C0B460DF199050DF118
:10467000A7008342C0F056810DF1A9039B1A814225
:1046800088BF00230DF19A021A4426ABD31A089A68
:104690001C93012A03EB020502DC1BF0010F01D081
:1046A000119B1D4400273E462BF4806343F4807326
:1046B00015930C97209B002B40F08D810023DDF893
:1046C00054B01493149BAB42B8BF2B4615939DF87E
:1046D0008B3013B1159B013315931BF0020320930C
:1046E0001EBF159B023315931BF08403219321D128
:1046F000129B159A9B1A002B17931BDDDDE92B23C8
:104700001798013210289D4804F10801206000F339
:104710009A821798072A0344CDE92B23606040F35F
:10472000A782414607982AAA02F0F4F9002840F02F
:10473000D9852DAC9DF88B202C9B6AB10DF18B0295
:104740002260012213442C932B9B62601344072B9D
:104750002B9300F38F820834209A2C9B62B123AAFA
:104760002260022213442C932B9B62600133072B9F
:104770002B9300F389820834219B802B21D1129B3B
:10478000159A9B1A002B17931BDDDDE92B23179835
:10479000013210287A4804F10801206000F37E827B
:1047A0001798072A0344CDE92B23606040F38B82DE
:1047B000414607982AAA02F0ADF9002840F09285F8
:1047C0002DAC149B5B1B002B14931BDDDDE92B230D
:1047D0001498013210286A4804F10801206000F39F
:1047E00074821498072A0344CDE92B23606040F3B8
:1047F0008182414607982AAA02F08CF9002840F0ED
:1048000071852DAC2C9B1BF4807F149340F0788233
:10481000C4E900951D442C952B9B0133072B2B934A
:1048200000F3B48208341BF0040F40F03D85DDE94D
:10483000122315998A42ACBF9B185B1813932C9BCB
:104840003BB1414607982AAA02F064F9002840F0DB
:10485000498500232B93BAF1000F40F05F850B9E32
:104860002DACC6E002F8010CACE603F8010B82E6C1
:104870000C9B462B04D0452B1CD16E1C022301E05F
:104880002E46032328AA049225AA039224AACDE93E
:10489000016200930798DDE9182301F05DF80C9B95
:1048A0008146472B19D11BF0010F05D1289BA3EBA3
:1048B000090399E62E46E1E787190022DDE9180190
:1048C0000023FCF769F800B128973022289B9F420B
:1048D000ECD9591C28911A70F8E70C9B8719462BC4
:1048E000EBD10378302B09D1DDE918010022002338
:1048F000FCF752F810B9C6F101062496249B1F4418
:10490000DBE70C9B462B7FF47DAE0BF00103002E02
:1049100043EA050325DD7BB3119BF3181D44662391
:104920000A9332E013F8016B05F8016FA1E641B973
:1049300030228DF89A200DF19B02303302F8013BB2
:10494000A3E60DF19A02F8E7089B9E420DDA089B58
:10495000119A002E03EB02050CDCC6F101031D4485
:1049600008E07BB1119B0133D8E71BF0010F1FD08A
:10497000119BF5186723D3E73546D0E7308A000846
:10498000208A0008662301250A931BF480630C9398
:104990001FD00027002E0C977FF78CAE0D9B1B7845
:1049A000FF2B07D10C9B169A3B4402FB035581E673
:1049B0003546DFE7B342F5DAF61A0D9B5B7833B183
:1049C0000C9B01330C930D9B01330D93E6E70137EC
:1049D000E4E70C9F6EE62D238DF88B306EE61BF01E
:1049E000200F0AD0139A33681399D217C3E9001223
:1049F0000436DDF84090FFF757BB1BF0100F03D0D3
:104A00003368139A1A60F3E71BF0400F03D0336842
:104A1000139A1A80ECE71BF4007FF1D03368139AE5
:104A20001A70E5E74BF0100B1BF020031ED0073681
:104A300026F007031A4652F8086B5F680B920023B2
:104A40002BF4806B00228DF88B20681C00F077849B
:104A50002BF080020C9256EA070240F07684002D7B
:104A600000F0DC80012B40F0738481E0324652F884
:104A7000046B1BF010070B9201D01F46DFE71BF001
:104A8000400301D0B6B2DAE71BF40077D7D0F6B214
:104A9000F3E7334653F8046B78220B9347F6300361
:104AA000ADF88C30944B00271D934BF0020B022382
:104AB0000A92C7E73346002653F8049B6F1C0B93FA
:104AC0008DF88B600FD02A463146484600F03AFEFA
:104AD000824600283FF48CACB2463746A0EB09056D
:104AE00014960C96EEE54846FBF7BAFFB24605462B
:104AF0007EE44BF0100B1BF0200309D0073626F0A4
:104B000007031A4652F8086B5F680B92012399E776
:104B1000324652F8046B1BF010070B9201D01F466F
:104B2000F4E71BF0400301D0B6B2EFE71BF40077C7
:104B3000ECD0F6B2F3E7714BFFF74BBB324652F8BD
:104B4000046B1BF010070B9202D01F46FFF74EBB01
:104B50001BF0400302D0B6B2FFF748BB1BF400774E
:104B60003FF444ABF6B2F0E70A2E77F1000307D228
:104B70003036F6B28DF857610DF2571900F004BCCB
:104B8000002308930C9B0DF5AC7A03F48063149317
:104B90000A22002330463946FBF780FF30320AF8FC
:104BA000012C089A834601320892149A0B460AF1A6
:104BB000FF39E2B10D9A08991278914217D1FF2975
:104BC00015D00A2E77F1000211D30893169B1B997A
:104BD000A9EB03091A46484600F04BFD0D9B5A7895
:104BE000089B1AB10D9A01320D92002208920A2EEA
:104BF00077F10007C0F0C8835E461F46CA46C7E784
:104C00001D9A06F00F03D35C360946EA07763F0982
:104C100009F8013D56EA0703F2D1B5E323B91BF0C9
:104C2000010F01D03026A5E70DF5AC79ACE30A9B66
:104C3000002B00F079838DF8F43000230B968DF86B
:104C40008B30FFF768BB1020072A0344CDE92B23E4
:104C5000606008DD414607982AAA01F05BFF002842
:104C600040F040832DA9179B0C46103B179345E558
:104C70000C465FE5414607982AAA01F04BFF002841
:104C800040F030832DAC67E5414607982AAA01F031
:104C900041FF002840F026832DAC6DE51020072A47
:104CA0000344CDE92B23606008DD414607982AAA1A
:104CB00001F030FF002840F015832DA9179B0C460A
:104CC000103B179361E50C467BE51020072A03444F
:104CD000CDE92B23606008DD414607982AAA01F040
:104CE00019FF002840F0FE822DA9149B0C46103BB2
:104CF00014936BE50C4685E5FC8900080D8A0008D5
:104D00000A9B652B40F33482DDE90E01002200236B
:104D1000FBF742FE002869D06E4B236001236360DD
:104D2000149B01332C932B9B0133072B2B9337DCE4
:104D30000834249B089A934203DB1BF0010F3FF4D5
:104D400072AD1A9B119A2360119B63602C9B1344D4
:104D50002C932B9B0133072B2B932BDC0834089BC4
:104D60005D1E002D7FF75FAD10275B4E102DDDE936
:104D70002B3204F1080103F10103266024DC656095
:104D8000072B1544CDE92B3540F38B82414607981C
:104D90002AAA01F0BFFE002840F0A4822DAC42E513
:104DA000414607982AAA01F0B5FE002840F09A82F1
:104DB0002DACBEE7414607982AAA01F0ABFE0028B9
:104DC00040F090822DACCAE71032072BCDE92B3290
:104DD000676008DD414607982AAA01F09BFE00287B
:104DE00040F080822DA90C46103DBFE7249B002B8C
:104DF00074DC384B236001236360149B01332C93D4
:104E00002B9B0133072B2B933DDC08340899249B03
:104E10002C9A0B430BF001010B433FF404AD1A9B9A
:104E20002360119B1A4463602B9B2C920133072B48
:104E30002B9332DC0834249D002D1BDA23461027E7
:104E4000254E6D42102DDDE92B2104F1080402F1FD
:104E500001021E602BDC5D60072A0D44CDE92B2585
:104E600008DD414607982AAA01F054FE002840F0C8
:104E700039822DAC089B089A63602C9BC4F8009083
:104E800013442C93C8E4414607982AAA01F042FE35
:104E9000002840F027822DACB8E7414607982AAA9F
:104EA00001F038FE002840F01D822DACC3E7103120
:104EB000072ACDE92B215F6008DD414607982AAA21
:104EC00001F028FE002840F00D822DAC2346103D55
:104ED000B8E700BF1E8A0008208A0008089B4B44E0
:104EE0000A93089BB342A8BF3346002B1D460BDD37
:104EF000C4E90093149B2B442C932B9B0133072B69
:104F00002B9300F382800834002DB4BF3546751B07
:104F1000002D19DDDDE92B329448102D03F101033A
:104F200004F1080120607ADC6560072B1544CDE9A7
:104F30002B3540F38780414607982AAA01F0EAFD05
:104F4000002840F0CF812DAC1BF4806F4E4408D078
:104F50000C9B002B78D1002F78D10A9B9E4228BF52
:104F60001E46249B089A934202DB1BF0010F0ED0D1
:104F70001A9B119A2360119B63602C9B13442C9302
:104F80002B9B0133072B2B9300F3DB800834089B0A
:104F9000249FDF1B0A9B9B1B9F42A8BF1F46002F1D
:104FA0002C9B0ADD3B442C932B9BC4E90067013307
:104FB000072B2B9300F3CF800834249D089B002FF0
:104FC000A3EB0505A8BFED1B002D7FF72CAC102728
:104FD000664E102DDDE92B3204F1080103F10103C7
:104FE00026607FF7CCAE1032072BCDE92B326760FD
:104FF00008DD414607982AAA01F08CFD002840F000
:1050000071812DA90C46103DE3E7414607982AAA75
:1050100001F080FD002840F065812DAC74E7102080
:10502000072B0244CDE92B32606008DD414607982A
:105030002AAA01F06FFD002840F054812DA90C46EA
:10504000103D67E70C467FE7002F4AD0013F1B9BCE
:10505000169A2360169B63602C9B13442C932B9B06
:105060000133072B2B9343DC08340D9B93F80090FE
:105070000A9B9B1B9945A8BF9946B9F1000F2C9B31
:1050800009DD4B442C932B9BC4E900690133072BAA
:105090002B9337DC08340D9BB9F1000F1D78A8BFA6
:1050A000A5EB0905002D18DDDDE92B322F48102D69
:1050B00003F1010304F1080120602DDC6560072B7A
:1050C0001544CDE92B353ADD414607982AAA01F06F
:1050D00021FD002840F006812DAC0D9B1B781E445D
:1050E00036E70D9B013B0D930C9B013B0C93AEE708
:1050F000414607982AAA01F00DFD002840F0F280F1
:105100002DACB2E7414607982AAA01F003FD00281A
:1051100040F0E8802DACBEE71020072B0244CDE91B
:105120002B32606008DD414607982AAA01F0F2FCA4
:10513000002840F0D7802DA90C46103DB4E70C465E
:10514000CBE7414607982AAA01F0E4FC002840F08A
:10515000C9802DAC1BE7414607982AAA01F0DAFC6A
:10516000002840F0BF802DAC27E700BF208A000850
:105170000899149B2B9A012903F1010302F1010202
:1051800004F1080502DC1BF0010F7FD00121072A82
:10519000CDE92B23C4F80090616008DD41460798F3
:1051A0002AAA01F0B7FC002840F09C802DAD1A9B84
:1051B000119A2B60119B6B602C9B13442C932B9B9F
:1051C0000133072B2B9332DC0835089B0022DDE9E5
:1051D0000E01DDE92B765C1E0023FBF7DDFB0028CA
:1051E0002ED109F10103C5E90034089B0137013EC6
:1051F0001E44072FCDE92B7651DD414607982AAA98
:1052000001F088FC00286DD12DAD26AB2B601C9BD6
:105210001C9A6B602C9B13442C932B9B0133072B04
:105220002B933FF7B3AD05F10804FFF7FCBA4146F5
:1052300007982AAA01F06EFC002853D12DADC4E7CF
:10524000089B012BE1DD1027564E102CDDE92B3297
:1052500005F1080103F101032E6007DC6C60072BE8
:105260001444CDE92B34C8DC0D46CEE71032072BB1
:10527000CDE92B326F6006DD414607982AAA01F07E
:1052800049FC78BB2DA90D46103CDEE70121072A19
:10529000CDE92B23C4F800906160B6DDADE7083599
:1052A000B3E70C46FFF7BFBA129B159A9D1A002D63
:1052B0007FF7BDAA10273C4E102DDDE92B3226606A
:1052C00003F1010318DC2A44072BCDE92B3265607A
:1052D0007FF7ADAA414607982AAA01F01BFC0028D7
:1052E0003FF4A5AABAF1000F3FF4B5A851460798BC
:1052F000FEF792FBFFF7AFB81032072BCDE92B3248
:10530000676002DC0834103DD6E7414607982AAAB8
:1053100001F000FC0028E5D12DACF4E751460798D8
:10532000FEF77AFBFFF79BBA2C9B002B3FF493A868
:10533000414607982AAA01F0EDFBFFF78CB856EA20
:105340000702CDF830B03FF48DAB012B3FF40CAC2D
:10535000022B0DF5AC793FF453AC06F00703F608C9
:1053600046EA4776FF08303356EA07014A4609F80D
:10537000013DF2D10C99C90706D5302B04D030235A
:1053800009F8013CA2F102094FF0000A56ABDDF822
:1053900030B01495A3EB090557465646CDF830A01A
:1053A000FFF790B9208A0008308A000870B50546DA
:1053B0000C46B1B118B1436B0BB9FEF7F5F8636E4B
:1053C000DE0705D4A389980502D4A06DFEF7BCFAC8
:1053D000B4F90C3043B9636ED90702D4A06DFEF75F
:1053E000B4FA0026304670BD2146284600F034F855
:1053F000E36A064633B12846E16998470028B8BFFA
:105400004FF0FF36A3891A0603D528462169FEF717
:1054100003FB216B41B104F14003994202D02846BD
:10542000FEF7FAFA00232363616C21B12846FEF7E8
:10543000F3FA00236364FEF7ABF80023A381636EE5
:10544000DB0702D4A06DFEF780FAA06DFEF77BFAB1
:10545000FEF7A4F8C6E70000F8B50546B1F90C0060
:105460000C46060757D440F400638B814B68002B31
:1054700002DCCB6B002B4CDDA66A002E49D000234A
:1054800010F480522F68E1692B6034D0226DA3891B
:10549000590705D56368D21A236B0BB1E36BD21A97
:1054A00000232846A66AE169B047431C06D12A6852
:1054B0001D2A47D8294B1341DE0743D4B4F90C30D9
:1054C00023F40062A281002262602269D904226072
:1054D00004D5421C01D12B6803B92065216B2F60D4
:1054E000B9B104F14003994202D02846FEF794FA7C
:1054F000002323630DE001232846B0470246501CD9
:10550000C5D12B68002BC2D01D2B01D0162B19D171
:105510002F6000201DE00F69002FFAD0830718BF0D
:1055200000230E6808BF4B69F61B0F608B60002ECE
:10553000EFDD33463A462846E169D4F824C0E04717
:10554000002807DC4FF0FF30B4F90C3043F0400383
:10555000A381F8BD0744361AE9E700BFFEFFBFDFAD
:1055600038B50C46054618B1436B0BB9FEF71CF86D
:10557000B4F90C00B8B1636EDB0704D4810502D422
:10558000A06DFEF7E1F928462146FFF765FF636E3F
:105590000546DA0705D4A3899B0502D4A06DFEF762
:1055A000D4F9284638BD0546FBE770B50C46B1F97D
:1055B0000E10154600291E4696B007DAA18911F093
:1055C000800117D14FF4806308460FE06A4600F06F
:1055D00067F80028F2DB01994FF4006001F4704194
:1055E000A1F50053594259414FF4806331602B605B
:1055F00016B070BD00214023E6E78B89F7B59D0703
:1056000006460C4607D504F14303236023610123BA
:10561000636103B0F0BD6A4601ABFFF7C6FF009FB0
:10562000054639463046FEF7BFFA48B9B4F90C30A2
:105630009A05EED423F0030343F00203A381E2E7CB
:10564000A389C4E9040743F08003A381019B206080
:105650005BB13046B4F90E1000F034F828B1A389DC
:1056600023F0030343F00103A381A3891D43A58114
:10567000CFE7034610B5013932B111F8014F013AB5
:1056800003F8014B002CF7D100211A44934200D1BA
:1056900010BD03F8011BF9E70048704744060020DD
:1056A00038B50023064D0446084611462B60FBF72B
:1056B00066FD431C02D12B6803B1236038BD00BFD7
:1056C000900D002038B50023054D044608462B6098
:1056D000FBF75AFD431C02D12B6803B1236038BD90
:1056E000900D002038B50023054D044608462B6078
:1056F000FBF74EFD431C02D12B6803B1236038BD7C
:10570000900D002038B5074D074C641BA4101CB940
:10571000BDE8384002F096BC013C55F8243098476B
:10572000F5E700BF888D00088C8D0008082808B5B3
:1057300006D0FEF7DDF8162303604FF0FF3008BDFA
:105740008020FCE7034610B5C9B2024493421846D4
:1057500001D1002003E0047801338C42F6D110BD62
:10576000F8B5174600223A60144A21F000469642E6
:1057700004460D460B461ED8024632431BD0104A43
:105780000A4052B900220F4BFAF79EFE6FF0350225
:1057900004460B4621F000463A603A68361523F07D
:1057A000FF43A6F2FE3623F4E003324443F07F5574
:1057B0003A6045F4001520462946F8BDFFFFEF7F0B
:1057C0000000F07F000050432DE9F047DFF86CA0A7
:1057D0000646DAF8000098460F469146FEF7B4F800
:1057E000174B1C680CB9174C1C606568DAF8000090
:1057F0001F2D05DDFEF7A9F84FF0FF30BDE8F0875B
:105800009EB1012204EB8501C1F88890D4F888315B
:10581000AA401343C4F88831022EC1F8088102BFA0
:10582000D4F88C311343C4F88C316B1C023563609F
:1058300044F82570FEF789F80020DFE740010020DA
:10584000980D0020D00D00202DE9F74F03690C6959
:105850000746A3427EDB013CA30000F1140501F1E1
:105860001408009305EB8403019358F8243055F88D
:10587000242001339A42B2FBF3F608EB84092ED3BD
:105880004FF0000AC446AE46D3465CF8043B98B2DB
:1058900006FB00A01B0C020C06FB0323DEF8002015
:1058A00080B292B2121A5A44DEF800004FEA134A4C
:1058B0009BB2C3EB224303EB104392B242EA034292
:1058C000E1454FEA234B4EF8042BDED2009BEB5808
:1058D0002BB9019B043B9D421A462FD33C613846AD
:1058E00001F010F8002825DB2946002058F8042B89
:1058F000D1F800C01FFA82FE1FFA8CF3A3EB0E034F
:105900000344120CC2EB234202EB1C429BB243EA5B
:105910000243C1454FEA224041F8043BE6D255F824
:10592000242005EB840322B9043B9D421A460BD385
:105930003C610136304603B0BDE8F08F1268043B8D
:10594000002ACBD1013CC6E71268043B002AEFD104
:10595000013CEAE70020EEE72DE9F04F14461D4632
:10596000816B97B08346CDE90245239E49B101235F
:10597000C26B93408B604A6000F0BFFD0023CBF800
:1059800038302B1EAFBF0023012223F000430393C6
:10599000A8BF3360DDF80C80974BB8BF326033EAA4
:1059A000080314D142F20F73229A1360C8F3130351
:1059B000234300F04D85249BDFF840A21BB10AF180
:1059C0000303249A1360504617B0BDE8F08FDDE959
:1059D0000223CDE90C23DDE90C0100220023FAF7B4
:1059E000DBFF074650B10123229A1360249B13B1B9
:1059F000834B249A1360DFF80CA2E4E714AB019305
:105A000015AB00935846DDE90C2301F02BF8C8F3E1
:105A10000A568146002E77D0DDE90C010D9BA6F2D7
:105A2000FF36C3F3130343F07F5343F4401312973D
:105A300019460022744BFAF78FFB69A3D3E90023C0
:105A4000FAF742FD68A3D3E90023FAF787FB04467F
:105A500030460D46FAF7CEFC65A3D3E90023FAF7EA
:105A600033FD02460B4620462946FAF777FB0446EB
:105A70000D46FAF7C3FF00220746002320462946B9
:105A8000FAF794FF40B13846FAF7B4FC22462B46A9
:105A9000FAF782FF00B9013F162F53D8DDE90C0158
:105AA0005A4B03EBC703D3E90023FAF77FFF002823
:105AB0004AD00023013F0F93149B9B1B5A1E46BFE5
:105AC000C3F1010800234FF00008099248BF099371
:105AD000002F3BDB099B0E973B44099300230A935D
