:020000040800F2
:10000000005000201907000871040008730400085C
:100010007504000877040008790400080000000057
:100020000000000000000000000000007B04000849
:100030007D040008000000007F040008810400081F
:1000400061070008610700086107000861070008F0
:1000500061070008610700086107000861070008E0
:1000600061070008610700086107000861070008D0
:100070006107000861070008890400089904000866
:1000800061070008610700086107000861070008B0
:1000900061070008610700086107000861070008A0
:1000A0006107000861070008610700086107000890
:1000B00061070008A904000861070008610700083B
:1000C0006107000861070008610700086107000870
:1000D0006107000861070008610700086107000860
:1000E00061070008610700086107000800000000C0
:1000F0000000000000000000000000000000000000
:0C01000000000000000000005FF808F1A3
:10010C0010B5054C237833B9044B13B10448AFF345
:10011C0000800123237010BD540500200000000056
:10012C007033000808B5034B1BB103490348AFF308
:10013C00008008BD00000000580500207033000846
:10014C0000B583B00E4B5A6942F001025A615B69EB
:10015C0003F001030193019B002211460E2000F0D5
:10016C008BFB0E2000F098FB002211460F2000F0B4
:10017C0083FB0F2000F090FB03B05DF804FB00BF85
:10018C00001002402DE9F04188B00024049405943D
:10019C00069407942E4B9A6942F010029A619A6960
:1001AC0002F010020092009A9A6942F020029A61C1
:1001BC009A6902F020020192019A9A6942F00402B3
:1001CC009A619A6902F004020292029A9A6942F0C8
:1001DC0008029A619B6903F008030393039B1D4F6C
:1001EC0022464FF40051384600F05EFDDFF868807F
:1001FC002246FF21404600F057FD184E224640F2A1
:10020C000741304600F050FD4FF400530493112386
:10021C00059306940225079504A9384600F036FC90
:10022C00FF230493012705970694079504A94046DC
:10023C0000F02CFC40F207430493059706940795B5
:10024C0004A9304600F022FC08B0BDE8F08100BFE4
:10025C00001002400010014000080140000C014059
:10026C0008B50B480B4B03600B4B436000238360BA
:10027C00C3604FF48042026143618361C3610362D6
:10028C0000F0BCFE00B908BD00F03BF8FBE700BF76
:10029C007005002000540040A086010010B586B007
:1002AC00002302930393049305930268114B9A4223
:1002BC0001D006B010BD104CA36943F00803A36134
:1002CC00A36903F008030093009BC023029312233D
:1002DC0003930323059302A9084800F0D7FBE369B5
:1002EC0043F40013E361E36903F400130193019BEE
:1002FC00DFE700BF0054004000100240000C01403A
:10030C00704772B6FEE700B591B02822002106A80E
:10031C0002F08DFA00230193029303930493059347
:10032C00012206924FF4803307930A9202220D9217
:10033C000E934FF4E0130F9306A801F005F880B963
:10034C000F23019302210291002303934FF4806247
:10035C000492059301A801F029FA20B911B05DF8B7
:10036C0004FBFFF7CEFFFFF7CCFF000008B500F051
:10037C0019FAFFF7C8FFFFF705FFFFF7E1FE00F0E2
:10038C00E3F8FFF76DFF00F037F9054800F00CF8C3
:10039C00044801F015FB01F0E7FE02F039F8FEE726
:1003AC009C060020CC05002010B5094B1860094CA8
:1003BC002068002302221946806802F039F920686F
:1003CC00002302221946406802F032F910BD00BF2A
:1003DC00C40500201800002000B583B001904FF632
:1003EC00FF73012201A90448006801F0EEFD019899
:1003FC0003B05DF804FB00BFC405002000B583B05A
:10040C004FF6FF7301220DF107010448006801F05B
:10041C0042FE9DF8070003B05DF804FBC405002004
:10042C0082B00E4B9A6942F001029A619A6902F00D
:10043C0001020092009ADA6942F08052DA61DB69BB
:10044C0003F080530193019B054A536823F0E0634A
:10045C0043F00073536002B0704700BF00100240BD
:10046C0000000140FEE7FEE7FEE7FEE7FEE770470F
:10047C007047704708B500F0A7F908BD08B50248E9
:10048C0000F062FA08BD00BF1406002008B502484F
:10049C0000F05AFA08BD00BF5806002008B5024803
:1004AC0001F0C6FA08BD00BFCC05002070B50C46A3
:1004BC001646002506E0FFF7A1FF214601F8010BC7
:1004CC0001350C46B542F6DB304670BD70B50C46B6
:1004DC001646002504E014F8010BFFF77DFF0135EB
:1004EC00B542F8DB304670BD4FF0FF3070474FF42B
:1004FC0000534B60002070470020704710B5034636
:10050C000C4A0D490D48006840B10C480068034482
:10051C00521A934206D8094A136010BD0748084C7A
:10052C000460F2E702F0D2F90C2303604FF0FF30C5
:10053C00F3E700BF0050002000040000C8050020B5
:10054C00F80D00207047000000B587B0002302931F
:10055C00039304930593009301931548154A026085
:10056C0041F61F424260836042F20F72C260036127
:10057C00836101F04FFB90B94FF48053029302A9B1
:10058C000B4801F07FFB68B9002300930193694687
:10059C00074801F0F7FB40B907B05DF804FBFFF723
:1005AC00B0FEE9E7FFF7ADFEEEE7FFF7AAFEF3E7D3
:1005BC00CC0500200004004002680E4B9A4200D08B
:1005CC00704700B583B003F50333DA6942F00202D9
:1005DC00DA61DB6903F002030193019B0022052120
:1005EC001D2000F049F91D2000F056F903B05DF80C
:1005FC0004FB00BF0004004008B50A480A4B036026
:10060C004FF4E133436000238360C36003610C2229
:10061C0042618361C36101F0A8FC00B908BDFFF71A
:10062C0070FEFBE79C0600200038014070B586B0D8
:10063C000023029303930493059302682D4B9A4273
:10064C0001D006B070BD044603F558439A6942F4D4
:10065C0080429A619A6902F480420092009A9A69E7
:10066C0042F004029A619B6903F004030193019B1D
:10067C004FF40073029302230393032305931E4E3E
:10068C0002A9304600F002FA4FF480630293002571
:10069C000395049502A9304600F0F8F91748184B59
:1006AC000360456085608023C36005614561856199
:1006BC00C56100F013F9B0B9104BE3635C621148EB
:1006CC00114B036010234360002383608022C260BF
:1006DC00036143618361C36100F000F930B9094BD8
:1006EC00A3635C62ADE7FFF70CFEE5E7FFF709FEDD
:1006FC00F5E700BF00380140000801405806002013
:10070C00580002401406002044000240FFF71AFF74
:10071C000B480C490C4A002302E0D458C450043353
:10072C00C4188C42F9D3094A094C002301E0136028
:10073C000432A242FBD302F0CFF8FFF717FE70474A
:10074C000000002054050020C03300085405002090
:10075C00F40D0020FEE7000010B504460E4B1A788D
:10076C004FF47A73B3FBF2F30C4A1068B0FBF3F05E
:10077C0000F0A0F868B90F2C01D901200AE0002282
:10078C0021464FF0FF3000F077F8054B1C6000203D
:10079C0000E0012010BD00BF04000020000000207C
:1007AC000800002008B5074A136843F010031360D3
:1007BC00032000F04FF80020FFF7CEFFFFF730FECC
:1007CC00002008BD00200240034A1168034B1B782F
:1007DC000B441360704700BFE406002004000020A7
:1007EC00014B1868704700BFE4060020002808DBA6
:1007FC000901C9B200F1604000F5614080F80013B6
:10080C00704700F00F000901C9B2014B1954704731
:10081C0014ED00E000B500F00700C0F1070CBCF1CE
:10082C00040F28BF4FF0040C031D062B0FD9C31E59
:10083C004FF0FF3E0EFA0CF021EA000199400EFA3F
:10084C0003FE22EA0E0241EA02005DF804FB0023DB
:10085C00EEE70000074AD36823F4E0631B041B0C8B
:10086C00000200F4E060034343F0BF6343F4003341
:10087C00D360704700ED00E010B50446054BD86816
:10088C00C0F30220FFF7C6FF01462046FFF7AEFF7C
:10089C0010BD00BF00ED00E0002807DB00F01F02D8
:1008AC00400901239340024A42F82030704700BFB0
:1008BC0000E100E00138B0F1807F0BD24FF0E02373
:1008CC005861054AF02182F8231000209861072214
:1008DC001A6170470120704700ED00E060B310B45E
:1008EC0002460168154B0B441548A0FB03031B097A
:1008FC009B001364134BD363022382F821300868E6
:10090C0020F47F5020F03000536894682343D4685F
:10091C002343146923435469234394692343D469BF
:10092C00234303430B6000209063012382F82130A2
:10093C0082F8200010BC704701207047F8FFFDBF03
:10094C00CDCCCCCC0000024038B5C36B1A6804681F
:10095C002568016C04238B40134235D015F0040F2D
:10096C0032D0236813F0200F03D1236823F0040343
:10097C0023600368434A934214D01432934218D034
:10098C001432934217D01432934217D0143293423C
:10099C0017D01432934202D04FF0806203E04FF430
:1009AC00800200E00422384B5A60C36A03B19847B6
:1009BC0038BD4022F7E74FF48062F4E74FF48042F1
:1009CC00F1E74FF48022EEE702238B4013423CD038
:1009DC0015F0020F39D0236813F0200F06D12368CD
:1009EC0023F00A032360012380F821300368254A91
:1009FC00934214D0143293421CD0143293421BD025
:100A0C00143293421BD0143293421BD014329342B3
:100A1C0002D04FF0007203E04FF4001200E002220B
:100A2C00194B5A60002380F82030836A002BBFD00A
:100A3C009847BDE72022F3E74FF40072F0E74FF43C
:100A4C000052EDE74FF40032EAE708238B401342E3
:100A5C00AED015F0080FABD0236823F00E03236043
:100A6C00026CC16B012303FA02F24A60836380F8C3
:100A7C002130002380F82030036B002B98D098474E
:100A8C0096E700BF080002400000024070B582B03B
:100A9C000024A446A2E07E4DAB4210D007D97D4D78
:100AAC00AB420CD005F58035AB4208D013E0A5F570
:100ABC008015AB4203D005F57025AB4207D18B688E
:100ACC00002B55D0012B4ED04261082403E0A5F534
:100ADC008015AB42F3D0BEF1FF0F4BD806464FEA60
:100AEC008C0233680F25954023EA050304FA02F2C1
:100AFC00134333604B6813F0805F6DD0664B9A697B
:100B0C0042F001029A619B6903F001030193019B7E
:100B1C004FEA9C02951C614B53F825600CF00305C1
:100B2C00AD000F23AB4026EA03065D4B984228D05C
:100B3C0003F58063984200F08D8003F58063984242
:100B4C0000F08A8003F58063984218D0042319E0E2
:100B5C00CC68C0E7CC680434BDE7CC680834BAE78D
:100B6C00CC680C34B7E702610824B4E70024B2E780
:100B7C000424B0E7061DACF108029200B1E7032390
:100B8C0000E00023AB4033430232444D45F82230A1
:100B9C004B6813F4801F61D0424A936843EA0E03FA
:100BAC0093604B6813F4001F5ED03E4AD36843EA4F
:100BBC000E03D3604B6813F4003F5BD0394A536883
:100BCC0043EA0E0353604B6813F4803F58D0354A08
:100BDC00136843EA0E0313600CF1010C0B6833FA33
:100BEC000CF253D0012202FA0CF203EA020E32EAA2
:100BFC000303F1D14B68122B3FF64DAF122B3FF68E
:100C0C006AAF01A555F823F0CB0A00085D0B00086C
:100C1C00670B0008790B0008E30A0008E30A0008D8
:100C2C00E30A0008E30A0008E30A0008E30A0008E4
:100C3C00E30A0008E30A0008E30A0008E30A0008D4
:100C4C00E30A0008E30A0008E30A0008610B000845
:100C5C006D0B0008012395E7022393E7114A936873
:100C6C0023EA0E0393609CE70E4AD36823EA0E0333
:100C7C00D3609FE70B4A536823EA0E035360A2E745
:100C8C00084A136823EA0E031360A5E702B070BD8F
:100C9C000000221000003110001002400000014042
:100CAC0000080140000401400AB1016170470904C9
:100CBC000161704703685A6912F4806F01D10020FA
:100CCC0070476FF480625A6100230363202280F81E
:100CDC003D2080F83E30026C42F00402026480F841
:100CEC003C30012070472DE9F04106460C46174672
:100CFC0098463BE0FFF774FD069BC01A404502D8AE
:100D0C00B8F1000F32D1012D18D033689B6924EA59
:100D1C0003039BB2B3FA83F35B099F4226D10023F2
:100D2C003363202286F83D2086F83E30326C42F048
:100D3C002002326486F83C30012027E033685B697E
:100D4C0024EA03039BB2B3FA83F35B09E5E7336848
:100D5C005B6924EA030C1FFA8CFCBCFA8CFC4FEA8E
:100D6C005C1C674511D1B8F1FF3FC3D1C4F30745F3
:100D7C00012DECD033689B6924EA030C1FFA8CFC20
:100D8C00BCFA8CFC4FEA5C1CEBE70020BDE8F08160
:100D9C002DE9F84305460E469046994653E01A68ED
:100DAC0042F400721A602B686FF480625A6100235F
:100DBC002B63202285F83D2085F83E302A6C42F0CA
:100DCC0004022A6485F83C3001204AE0FFF708FD54
:100DDC00A0EB0900404502D8B8F1000F33D1012F28
:100DEC0017D02B689B6926EA03039BB2003B18BF04
:100DFC00012343B300232B63202285F83D2085F883
:100E0C003E302A6C42F020022A6485F83C300120E6
:100E1C0027E02B685B6926EA03039BB2003B18BFF3
:100E2C000123E6E72B689C6926EA0404A4B2003C83
:100E3C0018BF0124A4B12B685A6912F4806FAED18B
:100E4C00B8F1FF3FC2D1C6F30747012FEAD12B6897
:100E5C005C6926EA0404A4B2003C18BF0124E9E74B
:100E6C000020BDE8F88370B504460D46164623688D
:100E7C005B6913F0800F21D12046FFF71BFFF8B9F7
:100E8C00B5F1FF3FF3D0FFF7ABFC801BA84201D8B4
:100E9C00002DECD123685B6913F0800FE7D10023A0
:100EAC002363202284F83D2084F83E30226C42F0EB
:100EBC002002226484F83C30012000E0002070BD48
:100ECC000120FCE72DE9F04385B004460D46914620
:100EDC001F46DDF830800D9E0368196841F480715F
:100EEC0019600096434600224FF00111FFF7FBFEFC
:100EFC0060B9236805F0FE051D613346424626495C
:100F0C002046FFF745FF68B1012008E023681B6805
:100F1C0013F4807F02D04FF400732364032005B0D8
:100F2C00BDE8F0830023039323685A6903929B69FD
:100F3C000393039B324641462046FFF794FF30B99A
:100F4C00012F0FD123685FFA89F61E61E7E7236C46
:100F5C00042B01D00120E2E72268136843F40073EC
:100F6C001360F7E723684FEA19221A6132464146AB
:100F7C002046FFF778FF20B923685FFA89F61E61D7
:100F8C00CDE7236C042B01D00120C8E7226813683D
:100F9C0043F400731360F7E70200010070B50446D8
:100FAC000D46164623685B6913F0040F21D12046C9
:100FBC00FFF780FEF8B9B5F1FF3FF3D0FFF710FC57
:100FCC00801BA84201D8002DECD123685B6913F07B
:100FDC00040FE7D100232363202284F83D2084F8FA
:100FEC003E30226C42F02002226484F83C30012016
:100FFC0000E0002070BD0120FCE70000002800F09C
:10100C00CC8070B5044690F83D30002B77D024236B
:10101C0084F83D302268136823F0010313602268C2
:10102C00136843F4004313602268136823F40043ED
:10103C00136000F077FC62685A4B9A4264D85A4BA2
:10104C0098428CBF00230123002B40F0A880574905
:10105C00A1FB00318B0C25686A6822F03F0242EA42
:10106C0091426A6021680A6A22F03F0266684D4D1F
:10107C00AE424FD8013313430B622168CA6922F484
:10108C004F4222F0FF026568464B9D424CD8431EEE
:10109C006D00B3FBF5F3013340F6FC70034278D0DE
:1010AC00C3F30B031A43CA6121680B6823F0C00316
:1010BC00E269206A024313430B6021688B6823F4B6
:1010CC00034323F0FF032269E068024313438B6060
:1010DC002168CB6823F0FF036269A06902431343C4
:1010EC00CB602268136843F0010313600020206476
:1010FC00202384F83D30206384F83E0070BD80F8D6
:10110C003C30FFF7CBF882E7294B98428CBF002389
:10111C00012399E74FF4967505FB03F3254DA5FBC9
:10112C0003539B090133A6E7A668BEB9431E05EB22
:10113C00450CB3FBFCF30133C3F30B03B3FA83F39A
:10114C005B0943BBC6B9431E05EB4505B3FBF5F381
:10115C000133C3F30B0343F40043A3E7431E05EB36
:10116C00850C0CEB8C0CB3FBFCF30133C3F30B03BE
:10117C00B3FA83F35B09E4E7431E05EB850505EB46
:10118C008505B3FBF5F30133C3F30B0343F4404381
:10119C0088E7042386E7012384E7012070470120B8
:1011AC00ACE700BFA08601007F841E0083DE1B43DA
:1011BC00FF083D00D34D62102DE9F04383B0044687
:1011CC000F46904699460C9EFFF70AFB054694F88D
:1011DC003D00C0B2202803D0022003B0BDE8F0834C
:1011EC000095192301224B492046FFF77CFD00286E
:1011FC0040F0898094F83C30012B00F0868001236C
:10120C0084F83C3023681A6812F0010F03D11A6875
:10121C0042F001021A602268136823F40063136021
:10122C00212384F83D30402384F83E30002323648E
:10123C000A9B6362BDF82C306385638D2385364B26
:10124C00E362019500964B46424639462046FFF72D
:10125C0039FE00285BD1238D002B35D02A46314630
:10126C002046FFF700FE20BB626A236812781A61E1
:10127C00626A531C6362218D013989B22185638DA9
:10128C009BB2013B9BB263852368586910F0040F35
:10129C00E1D00029DFD052781A61636A01336362AE
:1012AC00238D013B2385638D9BB2013B9BB26385F0
:1012BC00D1E7236C042B01D001208EE72268136840
:1012CC0043F400731360F7E72A4631462046FFF7D4
:1012DC0065FE50B1236C042B01D001207DE7226800
:1012EC00136843F400731360F7E72268136843F440
:1012FC0000731360202384F83D30002384F83E30C3
:10130C0084F83C3069E7022067E7022065E701209A
:10131C0063E700BF020010000000FFFF82B0084B23
:10132C001B68084AA2FB03235B0A00FB03F301932F
:10133C0000BF019B5A1E0192002BF9D102B07047DD
:10134C0000000020D34D6210002800F0F18170B530
:10135C0082B00446036813F0010F2CD0994B5B68E4
:10136C0003F00C03042B1DD0964B5B6803F00C03AD
:10137C00082B12D06368B3F5803F41D0002B55D1B8
:10138C0003F1804303F504331A6822F480321A60A7
:10139C001A6822F480221A6037E08A4B5B6813F4D7
:1013AC00803FE7D0874B1B6813F4003F03D0636882
:1013BC00002B00F0BF81236813F0020F75D0814B16
:1013CC005B6813F00C0F5FD07E4B5B6803F00C0373
:1013DC00082B54D02369002B00F08A807A4B012211
:1013EC001A60FFF7FDF90546764B1B6813F0020FE8
:1013FC0075D1FFF7F5F9401B0228F5D903209EE1C2
:10140C00704A136843F480331360636843B3FFF787
:10141C00E7F905466B4B1B6813F4003FCBD1FFF784
:10142C00DFF9401B6428F5D9032088E1B3F5A02F20
:10143C0009D0644B1A6822F480321A601A6822F4BC
:10144C0080221A60E1E703F18043A3F53C331A686C
:10145C0042F480221A601A6842F480321A60D4E78F
:10146C00FFF7BEF90546574B1B6813F4003FA2D09B
:10147C00FFF7B6F9401B6428F5D903205FE1514B07
:10148C005B6813F4803FA5D14E4B1B6813F0020F21
:10149C0003D02369012B40F04F814A4A136823F093
:1014AC00F803616943EAC1031360236813F0080F62
:1014BC0033D0A369002B5CD0434B0122C3F88024AA
:1014CC00FFF78EF905463F4B5B6A13F0020F21D1F3
:1014DC00FFF786F9401B0228F5D903202FE1394A82
:1014EC00136823F0F803616943EAC1031360DCE776
:1014FC00354B00221A60FFF773F90546314B1B6818
:10150C0013F0020FD1D0FFF76BF9401B0228F5D96D
:10151C00032014E10120FFF701FF236813F0040FEF
:10152C0000F09680274BDB6913F0805F34D1254B9C
:10153C00DA6942F08052DA61DB6903F0805301937F
:10154C00019B0125214B1B6813F4807F26D0E36897
:10155C00012B3DD0002B53D103F1804303F5043311
:10156C001A6A22F001021A621A6A22F004021A6242
:10157C0033E0154B0022C3F88024FFF731F9054600
:10158C00104B5B6A13F0020FC7D0FFF729F9401B11
:10159C000228F5D90320D2E00025D3E70B4A1368C3
:1015AC0043F480731360FFF71BF90646074B1B6867
:1015BC0013F4807FCBD1FFF713F9801B6428F5D986
:1015CC000320BCE0001002400000424200700040CA
:1015DC005F4A136A43F001031362E36833B3FFF706
:1015EC00FFF806465A4B1B6A13F0020F2FD1FFF778
:1015FC00F7F8801B41F288339842F3D903209EE020
:10160C00052B09D0524B1A6A22F001021A621A6A8F
:10161C0022F004021A62E0E74D4B1A6A42F004020F
:10162C001A621A6A42F001021A62D6E7FFF7D8F87A
:10163C000646474B1B6A13F0020F08D0FFF7D0F891
:10164C00801B41F288339842F3D9032077E0E5B947
:10165C00E369002B72D03E4A526802F00C02082A51
:10166C0056D0022B17D03B4B00221A66FFF7B8F866
:10167C000446374B1B6813F0007F47D0FFF7B0F8D8
:10168C00001B0228F5D9032059E0314AD36923F015
:10169C008053D361DCE72F4B00221A66FFF7A0F8CA
:1016AC0005462B4B1B6813F0007F06D0FFF798F80C
:1016BC00401B0228F5D9032041E0236AB3F5803F93
:1016CC001AD023494B6823F47413226A606A0243CC
:1016DC0013434B601F4B01221A66FFF781F8044637
:1016EC001B4B1B6813F0007F0ED1FFF779F8001B22
:1016FC000228F5D9032022E0154A536823F400335D
:10170C00A1680B435360DCE7002018E0002016E0D2
:10171C00012B16D00E4B5B6803F48031226A914288
:10172C0011D103F47013626A93420ED1002006E0CB
:10173C0001207047012002E0012000E0002002B0EF
:10174C0070BD0120FBE70120F9E70120F7E700BF9E
:10175C0000100240000042420F4B5B6803F00C0289
:10176C00082A01D00D487047C3F383420C49885CAA
:10177C0013F4803F0BD0084B5B68C3F34043094A1A
:10178C00D35C064A02FB00F0B0FBF3F07047064B4B
:10179C0003FB00F0704700BF0010024000127A00FB
:1017AC00A4330008A033000800093D00002800F015
:1017BC00A08070B50D460446524B1B6803F007031E
:1017CC008B420BD24F4A136823F007030B43136071
:1017DC00136803F007038B4240F08D80236813F0ED
:1017EC00020F17D013F0040F04D0474A536843F488
:1017FC00E0635360236813F0080F04D0424A536827
:10180C0043F460535360404A536823F0F003A168DB
:10181C000B435360236813F0010F31D06368012B25
:10182C0020D0022B25D0384A126812F0020F64D057
:10183C0035494A6822F0030213434B60FEF7D0FF90
:10184C000646314B5B6803F00C036268B3EB820F06
:10185C0016D0FEF7C5FF801B41F288339842F0D9B1
:10186C00032045E0284A126812F4003FE0D1012021
:10187C003EE0254A126812F0007FD9D1012037E0F2
:10188C00204B1B6803F00703AB420AD91D4A1368AF
:10189C0023F007032B431360136803F00703AB42D9
:1018AC002DD1236813F0040F06D0174A536823F484
:1018BC00E063E1680B435360236813F0080F07D013
:1018CC00114A536823F46053216943EAC1035360FE
:1018DC00FFF742FF0C4B5B68C3F303130B4AD35C5B
:1018EC00D8400B4B18600B4B1868FEF735FF0020E7
:1018FC0070BD012070470120FAE70120F8E70120B4
:10190C00F6E700BF002002400010024090330008B0
:10191C000000002008000020014B1868704700BF31
:10192C000000002008B5FFF7F7FF044B5B68C3F31A
:10193C000223034AD35CD84008BD00BF001002400C
:10194C008833000808B5FFF7E7FF044B5B68C3F367
:10195C00C223034AD35CD84008BD00BF001002402C
:10196C008833000810B4036A046A24F0010404628A
:10197C00846924F0F00C4CEA021223F00A030B43A6
:10198C008261036210BC704710B4036A046A24F0CD
:10199C0010040462846924F4704C4CEA023223F083
:1019AC00A00343EA01138261036210BC7047836891
:1019BC0023F070030B4343F0070383607047000070
:1019CC0090F83D30DBB2012B27D1022380F83D305B
:1019DC000268D36843F00103D3600368114A934251
:1019EC0010D0B3F1804F0DD0A2F59432934209D0B0
:1019FC0002F58062934205D01A6842F001021A6027
:101A0C00002070479A6802F00702062A07D01A686D
:101A1C0042F001021A60002070470120704700203C
:101A2C00704700BF002C01407047704770477047EB
:101A3C0070B504460368DE681D6915F0020F10D0FE
:101A4C0016F0020F0DD06FF002021A61012303771A
:101A5C0003689B6913F0030F5ED0FFF7E6FF0023CA
:101A6C00237715F0040F12D016F0040F0FD0236853
:101A7C006FF004021A610223237723689B6913F425
:101A8C00407F4FD02046FFF7D0FF0023237715F07F
:101A9C00080F12D016F0080F0FD023686FF0080251
:101AAC001A61042323772368DB6913F0030F40D0FA
:101ABC002046FFF7BAFF0023237715F0100F12D042
:101ACC0016F0100F0FD023686FF010021A61082364
:101ADC0023772368DB6913F4407F31D02046FFF76E
:101AEC00A4FF0023237715F0010F02D016F0010F8D
:101AFC002DD115F0800F02D016F0800F2FD115F0DC
:101B0C00400F02D016F0400F31D115F0200F02D04B
:101B1C0016F0200F33D170BDFFF786FF2046FFF77C
:101B2C0085FF9CE72046FFF77FFF2046FFF77EFFEF
:101B3C00ABE72046FFF778FF2046FFF777FFBAE7C1
:101B4C002046FFF771FF2046FFF770FFC9E72368B7
:101B5C006FF001021A612046FEF7D2FBC9E7236839
:101B6C006FF080021A61204600F043F9C7E7236842
:101B7C006FF040021A612046FFF759FFC5E7236852
:101B8C006FF020021A61204600F032F9C3E7000022
:101B9C0003681F4A90420AD0B0F1804F07D0A2F5DB
:101BAC009432904203D002F58062904203D123F02C
:101BBC0070034A681343164A90420AD0B0F1804F22
:101BCC0007D0A2F59432904203D002F58062904285
:101BDC0003D123F44073CA68134323F080034A698A
:101BEC00134303608B68C3620B688362084B984293
:101BFC000AD001234361036913F0010F03D0036979
:101C0C0023F00103036170470B690363F1E700BF25
:101C1C00002C014040B310B5044690F83D30F3B1B0
:101C2C00022384F83D30214651F8040BFFF7B0FF36
:101C3C00012384F8463084F83E3084F83F3084F831
:101C4C00403084F8413084F8423084F8433084F8D2
:101C5C00443084F8453084F83D30002010BD80F8C5
:101C6C003C30FEF7A9FCDBE70120704710B4846818
:101C7C0024F47F4C42EA03220A4342EA0C028260BB
:101C8C0010BC704790F83C30012B78D010B504464E
:101C9C00012380F83C30022380F83D3002689368C1
:101CAC0023F47F4323F0770393600B68602B4CD0B5
:101CBC0029D8402B54D00CD9502B22D1CA68496852
:101CCC000068FFF74FFE50212068FFF770FE0020E0
:101CDC0005E0202B0DD009D9302B0AD0012001238F
:101CEC0084F83D30002384F83C3010BD0BB1102B30
:101CFC0005D119462068FFF75AFE0020EFE70120B6
:101D0C00EDE70120EBE7B3F5805F34D0B3F5005F6E
:101D1C000CD1CB684A6889680068FFF7A7FF226876
:101D2C00936843F4804393600020D8E7702B24D150
:101D3C00CB684A6889680068FFF798FF2268936847
:101D4C0043F0770393600020C9E7CA6849680068CC
:101D5C00FFF71AFE60212068FFF729FE0020BEE77E
:101D6C00CA6849680068FFF7FDFD40212068FFF74D
:101D7C001EFE0020B3E70020B1E70120AFE70220F0
:101D8C007047000090F83C20012A2CD010B4034678
:101D9C00012280F83C20022280F83D200268506825
:101DAC00946820F0700C086840EA0C0050601A68C7
:101DBC000E4882420AD0B2F1804F07D0A0F5943081
:101DCC00824203D000F58060824204D124F080046A
:101DDC00496821439160012283F83D20002083F85B
:101DEC003C0010BC70470220704700BF002C014023
:101DFC0070477047026802F10C0353E8003F23F46C
:101E0C0090730C3242E800310029F3D1026802F1E0
:101E1C00140353E8003F23F00103143242E800316D
:101E2C000029F3D1036B012B05D0202380F842301D
:101E3C00002303637047026802F10C0353E8003F70
:101E4C0023F010030C3242E800310029F3D1ECE707
:101E5C0010B504460268136923F44053C1680B4360
:101E6C00136183680269134342691A430168CB68A2
:101E7C0023F4B05323F00C031343CB600268536973
:101E8C0023F4407381690B4353610268134B9A42EC
:101E9C0020D0FFF747FD024602EB820202EB8202E2
:101EAC0063689B00B2FBF3F20D48A0FB02314909B9
:101EBC00642303FB11231B013233A0FB03035B09D7
:101ECC0003F0F00202EB011203F00F03216813443C
:101EDC008B6010BDFFF736FD0246DDE70038014090
:101EEC001F85EB512DE9F04383B005460E4617468E
:101EFC009946DDF828802B681C6836EA04040CBF70
:101F0C0001240024BC4228D1B8F1FF3FF3D0FEF7E6
:101F1C0067FCA0EB0900404523D8B8F1000F22D094
:101F2C002B68DA6812F0040FE5D0802EE3D0402E37
:101F3C00E1D01A6812F0080FDDD0002401941A6861
:101F4C0001925B680193019B2846FFF753FF08231E
:101F5C006B6485F84040012000E0002003B0BDE830
:101F6C00F0830320FAE70320F8E760B310B50446CA
:101F7C0090F8413013B3242384F841302268D3689D
:101F8C0023F40053D3602046FFF762FF22681369E5
:101F9C0023F4904313612268536923F02A0353619D
:101FAC002268D36843F40053D3600020606420237C
:101FBC0084F8413084F84230606310BD80F84030C2
:101FCC00FEF734FBD7E7012070472DE9F04182B0D2
:101FDC001E4690F84130DBB2202B56D104460D46FC
:101FEC009046002955D00AB901204FE000234364E4
:101FFC00212380F84130FEF7F3FB0746A4F8248038
:10200C00A4F82680A368B3F5805F02D04FF00008D7
:10201C0014E023692BB34FF000080FE0202384F861
:10202C004130032032E038F8023B2268C3F3080346
:10203C005360E28C92B2013A92B2E284E38C9BB28E
:10204C0093B100963B46002280212046FFF74AFFC1
:10205C000028E3D1002DE6D015F8012B23685A6037
:10206C00E7E7A8460025E9E700963B460022402119
:10207C002046FFF737FF18B9202384F8413005E0DC
:10208C00202384F84130032000E0022002B0BDE898
:10209C00F0810120FAE72DE9F04182B01E4690F85C
:1020AC004230DBB2202B59D104460D469046002914
:1020BC0058D00AB9012052E000234364222280F850
:1020CC0042200363FEF78CFB0746A4F82C80A4F88F
:1020DC002E80A368B3F5805F02D04FF000081CE09F
:1020EC00236913B14FF0000817E0A846002514E04F
:1020FC00202384F84230032031E023685B68C3F36B
:10210C00080328F8023B03E023685B682B70013559
:10211C00E28D92B2013A92B2E285E38D9BB2C3B1E9
:10212C0000963B46002220212046FFF7DBFE0028CC
:10213C00DED1002DE1D0A368B3F5805FE4D013B9F4
:10214C002369002BE0D023685B6803F07F032B70BE
:10215C00DDE7202384F84230002000E0022002B0AA
:10216C00BDE8F0810120FAE7F0B587B001248DF8C5
:10217C0017402A4D4FF0FF36029601940DF11703CC
:10218C00009323466B22D0212846FFF715F8002335
:10219C008DF81630029601940DF116030093234628
:1021AC006C22D0212846FFF707F809238DF815304B
:1021BC00029601940DF11503009323461922D021A8
:1021CC002846FEF7F9FF06238DF814300296019489
:1021DC0005AB009323461A22D0212846FEF7ECFFCC
:1021EC0018278DF81370029601940DF113030093C8
:1021FC0023461B22D0212846FEF7DEFF8DF81270F5
:10220C00029601940DF11203009323461C22D02157
:10221C002846FEF7D1FF07B0F0BD00BF70050020C7
:10222C0008B530B900224FF480710548FEF73CFD2B
:10223C0008BD01224FF480710148FEF735FDF7E728
:10224C00000C014008B530B900224FF4007105486C
:10225C00FEF72AFD08BD01224FF400710148FEF77C
:10226C0023FDF7E7000C014010B586B0002204E016
:10227C000133B3F57A7FFBD30132B2F57A7F01D209
:10228C000023F6E7144B9A6942F008029A619B69A5
:10229C0003F008030193019B00230293039304931F
:1022AC0005934FF480730293112303930323059337
:1022BC000A4C02A92046FEF7E9FB4FF40073029387
:1022CC0002A92046FEF7E2FB0120FFF7A9FF01203F
:1022DC00FFF7B8FF06B010BD00100240000C014023
:1022EC0008B50120FFF7AEFF0120FFF799FF002092
:1022FC00FFF7A8FF0020FFF793FF08BD08B50020EB
:10230C00FFF7A0FF0120FFF78BFF0120FFF79AFFDB
:10231C0008BD38B5054600240FE0802323411D423B
:10232C0014BF01200020FFF78DFF0120FFF778FF7D
:10233C000020FFF775FF0134E4B2072CEDD9012022
:10234C00FFF76EFF0020FFF76BFF38BD10B504469A
:10235C00FFF7C6FF7820FFF7DCFF0020FFF7D9FF5F
:10236C002046FFF7D6FFFFF7C9FF10BD70B5064634
:10237C000D46FFF7B5FF7820FFF7CBFF4020FFF7A6
:10238C00C8FF002404E0305DFFF7C3FF0134E4B262
:10239C00AC42F8D3FFF7B2FF70BD10B50C4640F05D
:1023AC00B000FFF7D3FF200940F01000FFF7CEFF7D
:1023BC0004F00F00FFF7CAFF10BD000010B5002499
:1023CC000BE000212046FFF7E8FF8021044800EBDA
:1023DC00C410FFF7CBFF0134E4B2072CF1D910BDC8
:1023EC00E806002000200BE0084A02EBC012002196
:1023FC00D1540133DBB213F0800FF5D00130C0B2F1
:10240C00072801D80023F6E7704700BFE806002034
:10241C0008B5FFF729FFAE20FFF798FFD520FFF78F
:10242C0095FF8020FFF792FFA820FFF78FFF3F203A
:10243C00FFF78CFFD320FFF789FF0020FFF786FF03
:10244C004020FFF783FFA120FFF780FFC820FFF794
:10245C007DFFDA20FFF77AFF1220FFF777FF81204C
:10246C00FFF774FFCF20FFF771FFD920FFF76EFF46
:10247C00F120FFF76BFFDB20FFF768FF3020FFF741
:10248C0065FFA420FFF762FFA620FFF75FFF8D20FA
:10249C00FFF75CFF1420FFF759FFAF20FFF756FF43
:1024AC00FFF7A0FFFFF78AFF08BD0000002310B55F
:1024BC000446C0E90033C0E904338360818143667C
:1024CC00C2818361194608225C3000F0B0F90D4BD3
:1024DC00E46123620C4B63620C4BA3620C4BE36212
:1024EC000C4B9C4206D003F16802944202D0D033CC
:1024FC009C4205D104F15800BDE8104000F010BA20
:10250C0010BD00BFB5270008D72700080F2800080A
:10251C0033280008E80A0020024A0349034800F067
:10252C0069B800BF0C0000201D30000820000020FE
:10253C0041680C4B10B59942044601D000F068FD7F
:10254C00A168094B994202D0204600F061FDE16878
:10255C00064B994204D02046BDE8104000F058BD0F
:10256C0010BD00BFE80A0020500B0020B80B002063
:10257C0010B50B4B0B4C0C4A20461A600421002260
:10258C00FFF794FF04F1680001220921FFF78EFF89
:10259C0004F1D0000222BDE810401221FFF786BFE3
:1025AC00200C0020E80A002025250008014800F036
:1025BC00B9B900BF2A0C0020014800F0B4B900BF23
:1025CC002A0C002010B50446FFF7F0FF636B1BB11B
:1025DC00BDE81040FFF7F0BF044B6363044B1B686E
:1025EC00002BF5D1FFF7C4FFF2E700BF3D25000833
:1025FC00200C00202DE9F843074688461446002697
:10260C00D4E90195B9F1010905D52468002CF7D15D
:10261C003046BDE8F883AB89012B07D9B5F90E30EC
:10262C00013303D029463846C04706436835E9E7ED
:10263C002DE9F7431D465B4B04461F680E4690463A
:10264C0027B17B6B13B93846FFF7BCFFB8F1020F0B
:10265C0006D0B8F1010F00F2A180002DC0F29E80CF
:10266C00636ED90705D4A3899A0502D4A06D00F036
:10267C0059F92146384600F0A5FD216B41B104F112
:10268C004003994202D0384600F0B4F9002323638A
:10269C000023A3616360A3891B0603D53846216917
:1026AC0000F0A8F9A389B8F1020F23F44A6323F0D0
:1026BC000303A38168D001AB6A462146384600F07B
:1026CC00A6FDA3891843A0812DBB009D284600F0D0
:1026DC0051FA0646002859D1DDF80090A94547D19A
:1026EC004FF0FF35B4F90C3043F00202A281002206
:1026FC00A26004F143022260226101226261626ED7
:10270C00D60704D4980502D4A06D00F00CF9284625
:10271C0003B0BDE8F083002ED8D07B6B13B93846DC
:10272C00FFF750FF009BC4E90465AB4218BFA389B7
:10273C0026601CBF43F40063A381B8F1010F02BFF4
:10274C00A38943F00103A381B4F90C3013F0080200
:10275C001ED0D90741BF00226D42A260A56158BFAF
:10276C00A560626ED20701D49B0513D50025CEE778
:10277C00484600F0FFF906460028B1D0A3894D4623
:10278C0043F08003A381C8E70025ABE7A946F5E732
:10279C00A260E6E7A06D00F0C6F8E7E74FF0FF3562
:1027AC00B5E700BF1800002010B50C46B1F90E10AB
:1027BC0000F068F80028ABBF236DA3891B1823F425
:1027CC008053ACBF2365A38110BD2DE9F0411F469A
:1027DC008B890546DB050C46164605D502230022DF
:1027EC00B1F90E1000F03CF8A389324623F4805363
:1027FC00A38128463B46B4F90E10BDE8F04100F029
:10280C0053B810B50C46B1F90E1000F029F8431C62
:10281C00A38915BF206523F4805343F48053A3810F
:10282C0018BFA38110BDB1F90E1000F009B8034612
:10283C000244934200D1704703F8011BF9E70000F2
:10284C0038B50023054D044608462B60FDF74CFEB9
:10285C00431C02D12B6803B1236038BD240C00202B
:10286C0038B50446084611460022054D2A601A4622
:10287C00FDF742FE431C02D12B6803B1236038BD27
:10288C00240C002038B50446084611460022054D9C
:10289C002A601A46FDF70AFE431C02D12B6803B1CD
:1028AC00236038BD240C002038B504460846114678
:1028BC000022054D2A601A46FDF708FE431C02D182
:1028CC002B6803B1236038BD240C0020014B186821
:1028DC00704700BF1800002070B500260C4D0D4C41
:1028EC00641BA410A64209D100F03CFD00260A4D41
:1028FC000A4C641BA410A64205D170BD55F8043BCC
:10290C0098470136EEE755F8043B98470136F2E755
:10291C00B4330008B4330008B4330008BC330008E7
:10292C007047704770477047024B13B1024800F074
:10293C0005B8704700000000B132000800230146C2
:10294C001A46184600F0CEBC2DE9F843064608207E
:10295C00894600F0BBFC8046234F304600F04CFB10
:10296C00BB685D6825F00305A5F11104A4EB09040F
:10297C004444B4FBF8F4013C08FB04F4A04505DD29
:10298C00304600F03FFB0020BDE8F88300213046C4
:10299C0000F078FCBB682B449842F1D13046614280
:1029AC0000F070FC013010D10021304600F06AFCC0
:1029BC00BA68831A0F2BE3DD0C4943F00103096855
:1029CC005360401A0A490860DAE7BB68084A2D1BB5
:1029DC0045F001055D60136830461B1B136000F069
:1029EC0011FB0120D0E700BF4C0100204401002066
:1029FC00300C0020F8B504460F46002900F0B180D9
:102A0C0000F0FAFA57F8042C564D22F00100A7F109
:102A1C00080303EB000CA968DCF80460614526F0A0
:102A2C00030602F001021BD106443AB957F8082CF0
:102A3C009B1A1644D3E90212CA60916046F0010257
:102A4C005A60AB60484B1B68B34204D8474B2046D6
:102A5C001968FFF779FF2046BDE8F84000F0D2BABC
:102A6C00CCF80460002A38D157F8081C05F1080787
:102A7C005B1A08449968B94231D0DF68CF60B960FD
:102A8C000CEB06014968C9070BD4DCF8081030447C
:102A9C003ABB374EB14224D10122C5E90433C3E914
:102AAC00021140F0010159601850002AD3D1B0F541
:102ABC00007F1BD20121C2084009814068680132A5
:102ACC000143696055F8320005EBC2010839C3E9CE
:102ADC00020145F83230C360BDE70022D0E7012285
:102AEC00CEE7DCF80C60CE60B160DAE7B0F5206FB1
:102AFC004FEA502214D282093832511C55F8311049
:102B0C0005EBC2068E4225D10120921000FA02F28A
:102B1C00686802436A60C3E90216B360CB609AE747
:102B2C00142A01D85B32E8E7542A02D8020B6E3221
:102B3C00E3E7B2F5AA7F02D8C20B7732DDE740F2A9
:102B4C0054518A4296BF820C7E227C32D5E789682A
:102B5C008E4204D04A6822F003028242F7D8CE6833
:102B6C00D9E7F8BD4C01002048010020600C002082
:102B7C0054010020024B0146186800F003B800BF56
:102B8C001800002001F10B03162B2DE9F74F054619
:102B9C0006D933F0070704D50C232B600024A1E1E0
:102BAC001027B942F8D8284600F026FAB7F5FC7F72
:102BBC00AE4E37D207F1080232445468A2F1080134
:102BCC008C424FEAD70302D1D468A24210D0D4E988
:102BDC0002126368CA6023F00303916023445A68AD
:102BEC0042F001025A60284600F00CFA083479E1F0
:102BFC00023334699E498C4277D0626822F0030C10
:102C0C00ACEB07000F2848DDE21940F0010347F058
:102C1C0001076760C6E90422C2E90211536044F857
:102C2C000C00E0E77B0A2AD0042B12D8BB093833FE
:102C3C005A1C06EBC2025468A2F1080C644506D07B
:102C4C00626822F00302D01B0F281CDD013B01330C
:102C5C00CFE7142B01D85B33EAE7542B02D83B0B9C
:102C6C006E33E5E7B3F5AA7F02D8FB0B7733DFE7CA
:102C7C0040F25452934204D8BB0C7C33D8E73F2328
:102C8C00D6E77E23D4E70028E16804DBA368D9608B
:102C9C008B60A318A3E70C46D0E70028C6E9041103
:102CAC0007DBA444DCF8043043F00103CCF8043017
:102CBC0099E7BCF5007F706880F093804FEADC02E6
:102CCC004FEA5C1E4FF0010C0CFA0EFC4CEA0000B3
:102CDC00013256F832C0706006EBC2000838C4E905
:102CEC0002C046F83240CCF80C40012298108240C9
:102CFC007068904226D3104206D123F00303520091
:102D0C00104203F10403FAD006EBC308C1469E46F9
:102D1C00D9F80C404C4540F0B7800EF1010E1EF076
:102D2C00030F09F10809F3D1980740F0E1807368AB
:102D3C0023EA0203736070685200904202D3002AA7
:102D4C0040F0E280D6F808A0DAF8043023F003094A
:102D5C00B94504D3A9EB07020F2A00F34081454B78
:102D6C00082019680AEB090B10313944019100F065
:102D7C00ADFA414A01991368804601331FBF01F136
:102D8C00FF310918434219402846019100F07AFAA4
:102D9C00421C044600F0F68083450199364A02D95C
:102DAC00B24540F0EF80354BA345186808F1FF3C65
:102DBC000844186040F0AA801BEA0C0F40F0A68073
:102DCC00B268494441F0010151602D4A1B681168F9
:102DDC008B4288BF13602B4A11688B4288BF1360EB
:102DEC00D0E0BCF5206F4FEA5C2218D24FEA9C125F
:102DFC00383202F1010E56F83EE006EBC208F045FF
:102E0C002BD14FF0010C92100CFA02F202437260BB
:102E1C00C4E902E8C8F80840CEF80C4065E7142A6B
:102E2C0001D85B32E5E7542A03D84FEA1C326E32E4
:102E3C00DFE7B2F5AA7F03D84FEADC327732D8E766
:102E4C0040F2545E724596BF4FEA9C427E227C3221
:102E5C00CFE7DEF808E0F04505D0DEF8042022F0DC
:102E6C0003026245F5D8DEF80C80D1E74C01002056
:102E7C0054010020600C002044010020300C002084
:102E8C005C0C0020580C00206068D4F80CC020F0BA
:102E9C000300A0EB070ABAF10F0F12DDA368E219C9
:102EAC0047F001076760C3F80CC0CCF808304AF053
:102EBC000103C6E90422C2E90211536044F800A0E0
:102ECC0091E6BAF1000F11DB2044436843F0010393
:102EDC00436054F8083F2846C3F80CC0CCF80830BF
:102EEC0000F090F8204603B0BDE8F08F644611E77F
:102EFC0058F80809013B40453FF416AF1BE7043373
:102F0C0052001042FBD0FFE67346FAE7D2F800E01D
:102F1C00BEF1FF3F1BBFA4EB0B0B0BEB00021460CD
:102F2C001A6014F0070B0EBF5846CBF1080024189A
:102F3C00621802EA0C018044A8EB010808EA0C08AC
:102F4C0041462846019200F09DF9431C019A294BF9
:102F5C0007D1BBF1000F23D04FF00008ABF10800F4
:102F6C0010441A68001B4044424440F00100B24532
:102F7C00B4601A6060603FF428AFB9F10F0F12D83B
:102F8C0001236360B3685B6823F00303BB42A3EBCC
:102F9C00070201D30F2A22DC284600F033F8FDE5A6
:102FAC001046D846DDE70521DAF80420A9F10C0912
:102FBC0029F0070902F0010242EA0902CAF80420CA
:102FCC00B9F10F0F0AEB0902C2E901117FF6FDAE50
:102FDC0028460AF10801FFF70DFD064BF5E6B4682B
:102FEC0047F0010342F0010227446360B7607A6046
:102FFC00F9E500BF300C00200148FFF793BC00BF7F
:10300C00280C00200148FFF78EBC00BF280C0020C4
:10301C0070B505460C46B1B118B1436B0BB9FFF74F
:10302C00D1FA636EDE0705D4A389980502D4A06D8E
:10303C00FFF778FCB4F90C3043B9636ED90702D4AE
:10304C00A06DFFF770FC0026304670BD2146284667
:10305C0000F034F8E36A064633B12846E169984734
:10306C000028B8BF4FF0FF36A3891A0603D52846AF
:10307C002169FFF7BFFC216B41B104F14003994278
:10308C0002D02846FFF7B6FC00232363616C21B104
:10309C002846FFF7AFFC00236364FFF787FA002391
:1030AC00A381636EDB0702D4A06DFFF73CFCA06D1F
:1030BC00FFF737FCFFF780FAC6E70000F8B50546C6
:1030CC00B1F90C000C46060757D440F400638B8111
:1030DC004B68002B02DCCB6B002B4CDDA66A002E60
:1030EC0049D0002310F480522F68E1692B6034D052
:1030FC00226DA389590705D56368D21A236B0BB1CE
:10310C00E36BD21A00232846A66AE169B047431C38
:10311C0006D12A681D2A47D8294B1341DE0743D410
:10312C00B4F90C3023F40062A2810022626022699F
:10313C00D904226004D5421C01D12B6803B9206547
:10314C00216B2F60B9B104F14003994202D028469B
:10315C00FFF750FC002323630DE001232846B04702
:10316C000246501CC5D12B68002BC2D01D2B01D0A0
:10317C00162B19D12F6000201DE00F69002FFAD0FB
:10318C00830718BF00230E6808BF4B69F61B0F603E
:10319C008B60002EEFDD33463A462846E169D4F8C1
:1031AC0024C0E047002807DC4FF0FF30B4F90C30A6
:1031BC0043F04003A381F8BD0744361AE9E700BF8A
:1031CC00FEFFBFDF38B50C46054618B1436B0BB993
:1031DC00FFF7F8F9B4F90C00B8B1636EDB0704D44F
:1031EC00810502D4A06DFFF79DFB28462146FFF711
:1031FC0065FF636E0546DA0705D4A3899B0502D4E7
:10320C00A06DFFF790FB284638BD0546FBE770B56F
:10321C000C46B1F90E10154600291E4696B007DA79
:10322C00A18911F0800117D14FF4806308460FE09B
:10323C006A4600F015F80028F2DB01994FF40060A3
:10324C0001F47041A1F50053594259414FF4806388
:10325C0031602B6016B070BD00214023E6E7000002
:10326C0038B50023064D0446084611462B60FDF781
:10327C003EF9431C02D12B6803B1236038BD00BF5B
:10328C00240C002038B50023054D044608462B605D
:10329C00FDF734F9431C02D12B6803B1236038BD10
:1032AC00240C002038B5074D074C641BA4101CB926
:1032BC00BDE8384000F05CB8013C55F82430984724
:1032CC00F5E700BFBC330008C0330008082808B578
:1032DC0006D0FFF7FBFA162303604FF0FF3008BD52
:1032EC008020FCE72DE9F047DFF86CA00646DAF801
:1032FC00000098460F469146FFF714FB174B1C68CD
:10330C000CB9174C1C606568DAF800001F2D05DD40
:10331C00FFF709FB4FF0FF30BDE8F0879EB10122AB
:10332C0004EB8501C1F88890D4F88831AA40134386
:10333C00C4F88831022EC1F8088102BFD4F88C3150
:10334C001343C4F88C316B1C0235636044F8257050
:10335C00FFF7E9FA0020DFE7400100202C0C0020E9
:10336C00640C0020F8B500BFF8BC08BC9E46704742
:0C337C00F8B500BFF8BC08BC9E467047C6
:10338800000000000102030400000000000000002B
:1033980001020304060708090102000002030405EC
:0C33A800060708090A0B0C0D0E0F101090
:0833B400352900083101000871
:0433BC000D010008F7
:1033C00000127A0001000000100000000000000060
:1033D00003000000E80A0020200000200000000098
:1033E00000000000E80A0020500B0020B80B00206D
:1033F00000000000000000000000000000000000CD
:1034000000000000000000000000000000000000BC
:1034100000000000000000000000000000000000AC
:10342000000000000000000000000000000000009C
:10343000000000000000000000000000000000008C
:10344000000000000000000000000000000000007C
:10345000000000000000000000000000000000006C
:10346000000000000000000000000000000000005C
:10347000000000000000000001000000000000004B
:103480000E33CDAB34126DE6ECDE05000B00000010
:10349000000000000000000000000000000000002C
:1034A000000000000000000000000000000000001C
:1034B000000000000000000000000000000000000C
:1034C00000000000000000000000000000000000FC
:1034D00000000000000000000000000000000000EC
:1034E00000000000000000000000000000000000DC
:1034F00000000000000000000000000000000000CC
:10350000290C0020FFFFFFFF000002000000000068
:10351000000000004C0100204C010020540100205C
:10352000540100205C0100205C01002064010020A7
:10353000640100206C0100206C0100207401002057
:10354000740100207C0100207C0100208401002007
:10355000840100208C0100208C01002094010020B7
:10356000940100209C0100209C010020A401002067
:10357000A4010020AC010020AC010020B401002017
:10358000B4010020BC010020BC010020C4010020C7
:10359000C4010020CC010020CC010020D401002077
:1035A000D4010020DC010020DC010020E401002027
:1035B000E4010020EC010020EC010020F4010020D7
:1035C000F4010020FC010020FC0100200402002086
:1035D000040200200C0200200C0200201402002033
:1035E000140200201C0200201C02002024020020E3
:1035F000240200202C0200202C0200203402002093
:10360000340200203C0200203C0200204402002042
:10361000440200204C0200204C02002054020020F2
:10362000540200205C0200205C02002064020020A2
:10363000640200206C0200206C0200207402002052
:10364000740200207C0200207C0200208402002002
:10365000840200208C0200208C02002094020020B2
:10366000940200209C0200209C020020A402002062
:10367000A4020020AC020020AC020020B402002012
:10368000B4020020BC020020BC020020C4020020C2
:10369000C4020020CC020020CC020020D402002072
:1036A000D4020020DC020020DC020020E402002022
:1036B000E4020020EC020020EC020020F4020020D2
:1036C000F4020020FC020020FC0200200403002081
:1036D000040300200C0300200C030020140300202E
:1036E000140300201C0300201C03002024030020DE
:1036F000240300202C0300202C030020340300208E
:10370000340300203C0300203C030020440300203D
:10371000440300204C0300204C03002054030020ED
:10372000540300205C0300205C030020640300209D
:10373000640300206C0300206C030020740300204D
:10374000740300207C0300207C03002084030020FD
:10375000840300208C0300208C03002094030020AD
:10376000940300209C0300209C030020A40300205D
:10377000A4030020AC030020AC030020B40300200D
:10378000B4030020BC030020BC030020C4030020BD
:10379000C4030020CC030020CC030020D40300206D
:1037A000D4030020DC030020DC030020E40300201D
:1037B000E4030020EC030020EC030020F4030020CD
:1037C000F4030020FC030020FC030020040400207C
:1037D000040400200C0400200C0400201404002029
:1037E000140400201C0400201C04002024040020D9
:1037F000240400202C0400202C0400203404002089
:10380000340400203C0400203C0400204404002038
:10381000440400204C0400204C04002054040020E8
:10382000540400205C0400205C0400206404002098
:10383000640400206C0400206C0400207404002048
:10384000740400207C0400207C04002084040020F8
:10385000840400208C0400208C04002094040020A8
:10386000940400209C0400209C040020A404002058
:10387000A4040020AC040020AC040020B404002008
:10388000B4040020BC040020BC040020C4040020B8
:10389000C4040020CC040020CC040020D404002068
:1038A000D4040020DC040020DC040020E404002018
:1038B000E4040020EC040020EC040020F4040020C8
:1038C000F4040020FC040020FC0400200405002077
:1038D000040500200C0500200C0500201405002024
:1038E000140500201C0500201C05002024050020D4
:1038F000240500202C0500202C0500203405002084
:10390000340500203C0500203C0500204405002033
:04391000440500204A
:0400000508000719CF
:00000001FF
