:020000040800F2
:1000000000500020A1030008E9020008EB020008EC
:10001000ED020008EF020008F102000800000000F5
:10002000000000000000000000000000F3020008D3
:10003000F502000800000000F7020008F9020008BD
:10004000E9030008E9030008E9030008E9030008E0
:10005000E9030008E9030008E9030008E9030008D0
:10006000E9030008E9030008E9030008E9030008C0
:10007000E9030008E9030008E9030008E9030008B0
:10008000E9030008E9030008E9030008E9030008A0
:10009000E9030008E9030008E9030008E903000890
:1000A000E9030008E9030008E9030008E903000880
:1000B000E9030008E9030008E9030008E903000870
:1000C000E9030008E9030008E9030008E903000860
:1000D000E9030008E9030008E9030008E903000850
:1000E000E9030008E9030008E90300080000000034
:1000F0000000000000000000000000000000000000
:0C01000000000000000000005FF808F1A3
:10010C0010B5054C237833B9044B13B10448AFF345
:10011C0000800123237010BD10000020000000009F
:10012C005811000808B5034B1BB103490348AFF342
:10013C00008008BD000000001400002058110008C9
:10014C002DE9F04188B0002404940594069407949A
:10015C002E4B9A6942F010029A619A6902F01002D1
:10016C000092009A9A6942F020029A619A6902F010
:10017C0020020192019A9A6942F004029A619A69EA
:10018C0002F004020292029A9A6942F008029A6101
:10019C009B6903F008030393039B1D4F22464FF406
:1001AC000051384600F0DEFADFF868802246FF2165
:1001BC00404600F0D7FA184E224640F2074130462E
:1001CC0000F0D0FA4FF400530493112305930694D6
:1001DC000225079504A9384600F0B6F9FF230493CD
:1001EC00012705970694079504A9404600F0ACF941
:1001FC0040F20743049305970694079504A93046EB
:10020C0000F0A2F908B0BDE8F08100BF0010024078
:10021C000010014000080140000C014072B6FEE7DE
:10022C0000B591B02822002106A800F0FDFE0023A5
:10023C0001930293039304930593012206924FF4C6
:10024C00803307930A9202220D920E934FF4E0131F
:10025C000F9306A800F0A2FA80B90F230193022194
:10026C000291002303934FF480620492059301A83A
:10027C0000F0C6FC20B911B05DF804FBFFF7CEFF0F
:10028C00FFF7CCFF08B500F0D1F8FFF7C9FFFFF777
:10029C0057FF00F031F8FEE782B00E4B9A6942F03E
:1002AC0001029A619A6902F001020092009ADA69DD
:1002BC0042F08052DA61DB6903F080530193019BB9
:1002CC00054A536823F0E06343F00073536002B0B7
:1002DC00704700BF0010024000000140FEE7FEE73F
:1002EC00FEE7FEE7FEE770477047704708B500F081
:1002FC00AFF808BD7047000000B587B0002302932B
:10030C00039304930593009301931548154A0260D7
:10031C0041F61F424260836042F20F72C260036179
:10032C00836100F093FD90B94FF48053029302A9BE
:10033C000B4800F0C3FD68B9002300930193694694
:10034C00074800F03BFE40B907B05DF804FBFFF72F
:10035C0065FFE9E7FFF762FFEEE7FFF75FFFF3E703
:10036C002C000020000400400268094B9A4200D087
:10037C00704782B003F50333DA6942F00202DA61A6
:10038C00DB6903F002030193019B02B0704700BFCD
:10039C0000040040FFF7AEFF0B480C490C4A002349
:1003AC0002E0D458C4500433C4188C42F9D3094A1F
:1003BC00094C002301E013600432A242FBD300F08D
:1003CC003BFEFFF75FFF704700000020100000208D
:1003DC00A01100081000002010020020FEE7000011
:1003EC0010B504460E4B1A784FF47A73B3FBF2F344
:1003FC000C4A1068B0FBF3F000F092F868B90F2CBF
:10040C0001D901200AE0002221464FF0FF3000F014
:10041C0077F8054B1C60002000E0012010BD00BFE8
:10042C0004000020000000200800002008B5074A46
:10043C00136843F010031360032000F04FF80F20F3
:10044C00FFF7CEFFFFF728FF002008BD0020024079
:10045C00034A1168034B1B780B441360704700BFB1
:10046C007400002004000020014B1868704700BF86
:10047C0074000020002808DB0901C9B200F16040BB
:10048C0000F5614080F80013704700F00F0009017F
:10049C00C9B2014B1954704714ED00E000B500F0DF
:1004AC000700C0F1070CBCF1040F28BF4FF0040C7F
:1004BC00031D062B0FD9C31E4FF0FF3E0EFA0CF096
:1004CC0021EA000199400EFA03FE22EA0E0241EAEB
:1004DC0002005DF804FB0023EEE70000074AD36836
:1004EC0023F4E0631B041B0C000200F4E0600343E4
:1004FC0043F0BF6343F40033D360704700ED00E07A
:10050C0010B50446054BD868C0F30220FFF7C6FFB0
:10051C0001462046FFF7AEFF10BD00BF00ED00E026
:10052C000138B0F1807F0BD24FF0E0235861054ABF
:10053C00F02182F823100020986107221A6170477D
:10054C000120704700ED00E070B582B00024A44695
:10055C00A2E07E4DAB4210D007D97D4DAB420CD002
:10056C0005F58035AB4208D013E0A5F58015AB42FC
:10057C0003D005F57025AB4207D18B68002B55D005
:10058C00012B4ED04261082403E0A5F58015AB4247
:10059C00F3D0BEF1FF0F4BD806464FEA8C023368FE
:1005AC000F25954023EA050304FA02F21343336046
:1005BC004B6813F0805F6DD0664B9A6942F0010274
:1005CC009A619B6903F001030193019B4FEA9C0222
:1005DC00951C614B53F825600CF00305AD000F23FF
:1005EC00AB4026EA03065D4B984228D003F58063A6
:1005FC00984200F08D8003F58063984200F08A8069
:10060C0003F58063984218D0042319E0CC68C0E746
:10061C00CC680434BDE7CC680834BAE7CC680C3439
:10062C00B7E702610824B4E70024B2E70424B0E77A
:10063C00061DACF108029200B1E7032300E0002391
:10064C00AB4033430232444D45F822304B6813F42F
:10065C00801F61D0424A936843EA0E0393604B6853
:10066C0013F4001F5ED03E4AD36843EA0E03D360F6
:10067C004B6813F4003F5BD0394A536843EA0E03CE
:10068C0053604B6813F4803F58D0354A136843EAE3
:10069C000E0313600CF1010C0B6833FA0CF253D0FF
:1006AC00012202FA0CF203EA020E32EA0303F1D140
:1006BC004B68122B3FF64DAF122B3FF66AAF01A5DC
:1006CC0055F823F0870500081906000823060008D2
:1006DC00350600089F0500089F0500089F050008C7
:1006EC009F0500089F0500089F0500089F0500084E
:1006FC009F0500089F0500089F0500089F0500083E
:10070C009F0500089F0500081D0600082906000823
:10071C00012395E7022393E7114A936823EA0E031A
:10072C0093609CE70E4AD36823EA0E03D3609FE7DD
:10073C000B4A536823EA0E035360A2E7084A136876
:10074C0023EA0E031360A5E702B070BD000022106F
:10075C000000311000100240000001400008014070
:10076C00000401400AB1016170470904016170473E
:10077C0082B0084B1B68084AA2FB03235B0A00FBF0
:10078C0003F3019300BF019B5A1E0192002BF9D178
:10079C0002B0704700000020D34D6210002800F01A
:1007AC00F18170B582B00446036813F0010F2CD0B0
:1007BC00994B5B6803F00C03042B1DD0964B5B68C4
:1007CC0003F00C03082B12D06368B3F5803F41D0C3
:1007DC00002B55D103F1804303F504331A6822F43E
:1007EC0080321A601A6822F480221A6037E08A4B31
:1007FC005B6813F4803FE7D0874B1B6813F4003F12
:10080C0003D06368002B00F0BF81236813F0020F44
:10081C0075D0814B5B6813F00C0F5FD07E4B5B681F
:10082C0003F00C03082B54D02369002B00F08A80B2
:10083C007A4B01221A60FFF717FE0546764B1B68B0
:10084C0013F0020F75D1FFF70FFE401B0228F5D9EC
:10085C0003209EE1704A136843F48033136063688D
:10086C0043B3FFF701FE05466B4B1B6813F4003FC7
:10087C00CBD1FFF7F9FD401B6428F5D9032088E1A3
:10088C00B3F5A02F09D0644B1A6822F480321A6099
:10089C001A6822F480221A60E1E703F18043A3F581
:1008AC003C331A6842F480221A601A6842F480328F
:1008BC001A60D4E7FFF7D8FD0546574B1B6813F4B5
:1008CC00003FA2D0FFF7D0FD401B6428F5D90320D0
:1008DC005FE1514B5B6813F4803FA5D14E4B1B6815
:1008EC0013F0020F03D02369012B40F04F814A4AC9
:1008FC00136823F0F803616943EAC10313602368AA
:10090C0013F0080F33D0A369002B5CD0434B0122AA
:10091C00C3F88024FFF7A8FD05463F4B5B6A13F034
:10092C00020F21D1FFF7A0FD401B0228F5D90320AF
:10093C002FE1394A136823F0F803616943EAC103D4
:10094C001360DCE7354B00221A60FFF78DFD05467E
:10095C00314B1B6813F0020FD1D0FFF785FD401B04
:10096C000228F5D9032014E10120FFF701FF2368C9
:10097C0013F0040F00F09680274BDB6913F0805FB7
:10098C0034D1254BDA6942F08052DA61DB6903F02D
:10099C0080530193019B0125214B1B6813F4807F2D
:1009AC0026D0E368012B3DD0002B53D103F18043BB
:1009BC0003F504331A6A22F001021A621A6A22F051
:1009CC0004021A6233E0154B0022C3F88024FFF7AF
:1009DC004BFD0546104B5B6A13F0020FC7D0FFF7B7
:1009EC0043FD401B0228F5D90320D2E00025D3E7B4
:1009FC000B4A136843F480731360FFF735FD06460A
:100A0C00074B1B6813F4807FCBD1FFF72DFD801BA8
:100A1C006428F5D90320BCE00010024000004242DB
:100A2C00007000405F4A136A43F001031362E368ED
:100A3C0033B3FFF719FD06465A4B1B6A13F0020F2E
:100A4C002FD1FFF711FD801B41F288339842F3D967
:100A5C0003209EE0052B09D0524B1A6A22F00102AA
:100A6C001A621A6A22F004021A62E0E74D4B1A6A03
:100A7C0042F004021A621A6A42F001021A62D6E7C4
:100A8C00FFF7F2FC0646474B1B6A13F0020F08D027
:100A9C00FFF7EAFC801B41F288339842F3D903201C
:100AAC0077E0E5B9E369002B72D03E4A526802F058
:100ABC000C02082A56D0022B17D03B4B00221A6688
:100ACC00FFF7D2FC0446374B1B6813F0007F47D06E
:100ADC00FFF7CAFC001B0228F5D9032059E0314A64
:100AEC00D36923F08053D361DCE72F4B00221A66C5
:100AFC00FFF7BAFC05462B4B1B6813F0007F06D0A2
:100B0C00FFF7B2FC401B0228F5D9032041E0236A11
:100B1C00B3F5803F1AD023494B6823F47413226A2F
:100B2C00606A024313434B601F4B01221A66FFF7A6
:100B3C009BFC04461B4B1B6813F0007F0ED1FFF788
:100B4C0093FC001B0228F5D9032022E0154A5368B8
:100B5C0023F40033A1680B435360DCE7002018E05A
:100B6C00002016E0012B16D00E4B5B6803F480318D
:100B7C00226A914211D103F47013626A93420ED12E
:100B8C00002006E001207047012002E0012000E077
:100B9C00002002B070BD0120FBE70120F9E7012025
:100BAC00F7E700BF00100240000042420F4B5B68A9
:100BBC0003F00C02082A01D00D487047C3F383429E
:100BCC000C49885C13F4803F0BD0084B5B68C3F373
:100BDC004043094AD35C064A02FB00F0B0FBF3F039
:100BEC007047064B03FB00F0704700BF001002403B
:100BFC0000127A00841100088011000800093D00E1
:100C0C00002800F0A08070B50D460446524B1B68BE
:100C1C0003F007038B420BD24F4A136823F00703F0
:100C2C000B431360136803F007038B4240F08D8075
:100C3C00236813F0020F17D013F0040F04D0474AA7
:100C4C00536843F4E0635360236813F0080F04D037
:100C5C00424A536843F460535360404A536823F04C
:100C6C00F003A1680B435360236813F0010F31D0DC
:100C7C006368012B20D0022B25D0384A126812F061
:100C8C00020F64D035494A6822F0030213434B60CB
:100C9C00FFF7EAFB0646314B5B6803F00C03626816
:100CAC00B3EB820F16D0FFF7DFFB801B41F28833CA
:100CBC009842F0D9032045E0284A126812F4003F0C
:100CCC00E0D101203EE0254A126812F0007FD9D114
:100CDC00012037E0204B1B6803F00703AB420AD915
:100CEC001D4A136823F007032B431360136803F0AA
:100CFC000703AB422DD1236813F0040F06D0174A1B
:100D0C00536823F4E063E1680B435360236813F0EA
:100D1C00080F07D0114A536823F46053216943EA42
:100D2C00C1035360FFF742FF0C4B5B68C3F3031323
:100D3C000B4AD35CD8400B4B18600B4B1868FFF771
:100D4C004FFB002070BD012070470120FAE7012005
:100D5C00F8E70120F6E700BF002002400010024037
:100D6C0070110008000000200800002010B4036A75
:100D7C00046A24F001040462846924F0F00C4CEA47
:100D8C00021223F00A030B438261036210BC70470A
:100D9C0010B4036A046A24F010040462846924F415
:100DAC00704C4CEA023223F0A00343EA0113826137
:100DBC00036210BC7047836823F070030B4343F04D
:100DCC00070383607047000003681F4A90420AD0F3
:100DDC00B0F1804F07D0A2F59432904203D002F5C7
:100DEC008062904203D123F070034A681343164A81
:100DFC0090420AD0B0F1804F07D0A2F594329042C5
:100E0C0003D002F58062904203D123F44073CA6888
:100E1C00134323F080034A69134303608B68C36256
:100E2C000B688362084B98420AD001234361036923
:100E3C0013F0010F03D0036923F001030361704722
:100E4C000B690363F1E700BF002C014040B310B500
:100E5C00044690F83D30F3B1022384F83D3021462E
:100E6C0051F8040BFFF7B0FF012384F8463084F8E7
:100E7C003E3084F83F3084F8403084F8413084F8B8
:100E8C00423084F8433084F8443084F8453084F898
:100E9C003D30002010BD80F83C30FFF765FADBE7F1
:100EAC000120704710B4846824F47F4C42EA03227A
:100EBC000A4342EA0C02826010BC704790F83C3046
:100ECC00012B78D010B50446012380F83C30022366
:100EDC0080F83D300268936823F47F4323F0770356
:100EEC0093600B68602B4CD029D8402B54D00CD974
:100EFC00502B22D1CA6849680068FFF737FF502190
:100F0C002068FFF758FF002005E0202B0DD009D9F1
:100F1C00302B0AD00120012384F83D30002384F8C3
:100F2C003C3010BD0BB1102B05D119462068FFF7D2
:100F3C0042FF0020EFE70120EDE70120EBE7B3F5DE
:100F4C00805F34D0B3F5005F0CD1CB684A688968F8
:100F5C000068FFF7A7FF2268936843F4804393600F
:100F6C000020D8E7702B24D1CB684A6889680068C8
:100F7C00FFF798FF2268936843F077039360002093
:100F8C00C9E7CA6849680068FFF702FF602120685A
:100F9C00FFF711FF0020BEE7CA6849680068FFF739
:100FAC00E5FE40212068FFF706FF0020B3E7002094
:100FBC00B1E70120AFE702207047000090F83C2019
:100FCC00012A2CD010B40346012280F83C200222C6
:100FDC0080F83D2002685068946820F0700C086816
:100FEC0040EA0C0050601A680E4882420AD0B2F1F6
:100FFC00804F07D0A0F59430824203D000F580607A
:10100C00824204D124F0800449682143916001227A
:10101C0083F83D20002083F83C0010BC7047022070
:10102C00704700BF002C014003460244934200D19C
:10103C00704703F8011BF9E770B500260C4D0D4CF9
:10104C00641BA410A64209D100F080F800260A4DBA
:10105C000A4C641BA410A64205D170BD55F8043B84
:10106C0098470136EEE755F8043B98470136F2E70E
:10107C009411000894110008941100089C110008A8
:10108C0070477047024B13B1024800F005B8704727
:10109C0000000000B1100008002301461A46184653
:1010AC0000F014B838B5074D074C641BA4101CB9DC
:1010BC00BDE8384000F050B8013C55F82430984752
:1010CC00F5E700BF9C110008A01100082DE9F047BE
:1010DC00DFF86CA00646DAF8000098460F469146F9
:1010EC00FFF7CEFF174B1C680CB9174C1C606568DA
:1010FC00DAF800001F2D05DDFFF7C3FF4FF0FF30BE
:10110C00BDE8F0879EB1012204EB8501C1F88890FF
:10111C00D4F88831AA401343C4F88831022EC1F8A0
:10112C00088102BFD4F88C311343C4F88C316B1C8A
:10113C000235636044F82570FFF7A3FF0020DFE75A
:10114C000C0000207C00002080000020F8B500BFBF
:10115C00F8BC08BC9E467047F8B500BFF8BC08BC8C
:04116C009E467047E4
:101170000000000000000000010203040607080947
:101180000102000002030405060708090A0B0C0D02
:041190000E0F10101E
:08119400911000083101000870
:04119C000D01000839
:1011A00000127A000100000010000000780000200A
:04000005080003A14B
:00000001FF
